{
  "_format": "hh-sol-artifact-1",
  "contractName": "Idw3Factory",
  "sourceName": "contracts/Idw3Factory.sol",
  "abi": [
    {
      "inputs": [
        {
          "internalType": "string",
          "name": "_vaultId",
          "type": "string"
        },
        {
          "internalType": "bool",
          "name": "_isSentient",
          "type": "bool"
        }
      ],
      "name": "createIdw3",
      "outputs": [],
      "stateMutability": "payable",
      "type": "function"
    },
    {
      "inputs": [
        {
          "internalType": "uint256",
          "name": "",
          "type": "uint256"
        }
      ],
      "name": "deployedIdw3s",
      "outputs": [
        {
          "internalType": "address",
          "name": "",
          "type": "address"
        }
      ],
      "stateMutability": "view",
      "type": "function"
    },
    {
      "inputs": [],
      "name": "evaluateIfUserHasIdw3",
      "outputs": [
        {
          "internalType": "bool",
          "name": "",
          "type": "bool"
        }
      ],
      "stateMutability": "view",
      "type": "function"
    },
    {
      "inputs": [
        {
          "internalType": "address",
          "name": "",
          "type": "address"
        }
      ],
      "name": "idw3Owners",
      "outputs": [
        {
          "internalType": "bool",
          "name": "",
          "type": "bool"
        }
      ],
      "stateMutability": "view",
      "type": "function"
    },
    {
      "inputs": [
        {
          "internalType": "address",
          "name": "",
          "type": "address"
        }
      ],
      "name": "idw3s",
      "outputs": [
        {
          "internalType": "address",
          "name": "",
          "type": "address"
        }
      ],
      "stateMutability": "view",
      "type": "function"
    }
  ],
  "bytecode": "0x608060405234801561001057600080fd5b50611186806100206000396000f3fe608060405260043610620000505760003560e01c80635ce84147146200005557806366aaa4b7146200008557806375dbf2e514620000c95780637ed1236b146200010d578063ae6c25fa146200012d575b600080fd5b3480156200006257600080fd5b506200006d62000171565b6040516200007c9190620003df565b60405180910390f35b3480156200009257600080fd5b50620000b16004803603810190620000ab919062000475565b620001de565b604051620000c09190620003df565b60405180910390f35b348015620000d657600080fd5b50620000f56004803603810190620000ef9190620004e2565b620001fe565b60405162000104919062000525565b60405180910390f35b6200012b6004803603810190620001259190620006d5565b6200023e565b005b3480156200013a57600080fd5b5062000159600480360381019062000153919062000475565b62000381565b60405162000168919062000525565b60405180910390f35b600060011515600160003373ffffffffffffffffffffffffffffffffffffffff1673ffffffffffffffffffffffffffffffffffffffff16815260200190815260200160002060009054906101000a900460ff16151503620001d65760019050620001db565b600090505b90565b60016020528060005260406000206000915054906101000a900460ff1681565b600081815481106200020f57600080fd5b906000526020600020016000915054906101000a900473ffffffffffffffffffffffffffffffffffffffff1681565b336040516020016200025191906200078b565b60405160208183030381529060405280519060200120600083836040516200027990620003b4565b6200028692919062000831565b604051809103906000f080158015620002a3573d6000803e3d6000fd5b50905060018060003373ffffffffffffffffffffffffffffffffffffffff1673ffffffffffffffffffffffffffffffffffffffff16815260200190815260200160002060006101000a81548160ff02191690831515021790555080600260003373ffffffffffffffffffffffffffffffffffffffff1673ffffffffffffffffffffffffffffffffffffffff16815260200190815260200160002060006101000a81548173ffffffffffffffffffffffffffffffffffffffff021916908373ffffffffffffffffffffffffffffffffffffffff16021790555050505050565b60026020528060005260406000206000915054906101000a900473ffffffffffffffffffffffffffffffffffffffff1681565b6108eb806200086683390190565b60008115159050919050565b620003d981620003c2565b82525050565b6000602082019050620003f66000830184620003ce565b92915050565b6000604051905090565b600080fd5b600080fd5b600073ffffffffffffffffffffffffffffffffffffffff82169050919050565b60006200043d8262000410565b9050919050565b6200044f8162000430565b81146200045b57600080fd5b50565b6000813590506200046f8162000444565b92915050565b6000602082840312156200048e576200048d62000406565b5b60006200049e848285016200045e565b91505092915050565b6000819050919050565b620004bc81620004a7565b8114620004c857600080fd5b50565b600081359050620004dc81620004b1565b92915050565b600060208284031215620004fb57620004fa62000406565b5b60006200050b84828501620004cb565b91505092915050565b6200051f8162000430565b82525050565b60006020820190506200053c600083018462000514565b92915050565b600080fd5b600080fd5b6000601f19601f8301169050919050565b7f4e487b7100000000000000000000000000000000000000000000000000000000600052604160045260246000fd5b62000597826200054c565b810181811067ffffffffffffffff82111715620005b957620005b86200055d565b5b80604052505050565b6000620005ce620003fc565b9050620005dc82826200058c565b919050565b600067ffffffffffffffff821115620005ff57620005fe6200055d565b5b6200060a826200054c565b9050602081019050919050565b82818337600083830152505050565b60006200063d6200063784620005e1565b620005c2565b9050828152602081018484840111156200065c576200065b62000547565b5b6200066984828562000617565b509392505050565b600082601f83011262000689576200068862000542565b5b81356200069b84826020860162000626565b91505092915050565b620006af81620003c2565b8114620006bb57600080fd5b50565b600081359050620006cf81620006a4565b92915050565b60008060408385031215620006ef57620006ee62000406565b5b600083013567ffffffffffffffff81111562000710576200070f6200040b565b5b6200071e8582860162000671565b92505060206200073185828601620006be565b9150509250929050565b60008160601b9050919050565b600062000755826200073b565b9050919050565b6000620007698262000748565b9050919050565b620007856200077f8262000430565b6200075c565b82525050565b600062000799828462000770565b60148201915081905092915050565b600081519050919050565b600082825260208201905092915050565b60005b83811015620007e4578082015181840152602081019050620007c7565b60008484015250505050565b6000620007fd82620007a8565b620008098185620007b3565b93506200081b818560208601620007c4565b62000826816200054c565b840191505092915050565b600060408201905081810360008301526200084d8185620007f0565b90506200085e6020830184620003ce565b939250505056fe60806040523480156200001157600080fd5b50604051620008eb380380620008eb833981810160405281019062000037919062000255565b816000908162000048919062000506565b50806001806101000a81548160ff0219169083151502179055506000600160006101000a81548160ff0219169083151502179055505050620005ed565b6000604051905090565b600080fd5b600080fd5b600080fd5b600080fd5b6000601f19601f8301169050919050565b7f4e487b7100000000000000000000000000000000000000000000000000000000600052604160045260246000fd5b620000ee82620000a3565b810181811067ffffffffffffffff8211171562000110576200010f620000b4565b5b80604052505050565b60006200012562000085565b9050620001338282620000e3565b919050565b600067ffffffffffffffff821115620001565762000155620000b4565b5b6200016182620000a3565b9050602081019050919050565b60005b838110156200018e57808201518184015260208101905062000171565b60008484015250505050565b6000620001b1620001ab8462000138565b62000119565b905082815260208101848484011115620001d057620001cf6200009e565b5b620001dd8482856200016e565b509392505050565b600082601f830112620001fd57620001fc62000099565b5b81516200020f8482602086016200019a565b91505092915050565b60008115159050919050565b6200022f8162000218565b81146200023b57600080fd5b50565b6000815190506200024f8162000224565b92915050565b600080604083850312156200026f576200026e6200008f565b5b600083015167ffffffffffffffff81111562000290576200028f62000094565b5b6200029e85828601620001e5565b9250506020620002b1858286016200023e565b9150509250929050565b600081519050919050565b7f4e487b7100000000000000000000000000000000000000000000000000000000600052602260045260246000fd5b600060028204905060018216806200030e57607f821691505b602082108103620003245762000323620002c6565b5b50919050565b60008190508160005260206000209050919050565b60006020601f8301049050919050565b600082821b905092915050565b6000600883026200038e7fffffffffffffffffffffffffffffffffffffffffffffffffffffffffffffffff826200034f565b6200039a86836200034f565b95508019841693508086168417925050509392505050565b6000819050919050565b6000819050919050565b6000620003e7620003e1620003db84620003b2565b620003bc565b620003b2565b9050919050565b6000819050919050565b6200040383620003c6565b6200041b6200041282620003ee565b8484546200035c565b825550505050565b600090565b6200043262000423565b6200043f818484620003f8565b505050565b5b8181101562000467576200045b60008262000428565b60018101905062000445565b5050565b601f821115620004b65762000480816200032a565b6200048b846200033f565b810160208510156200049b578190505b620004b3620004aa856200033f565b83018262000444565b50505b505050565b600082821c905092915050565b6000620004db60001984600802620004bb565b1980831691505092915050565b6000620004f68383620004c8565b9150826002028217905092915050565b6200051182620002bb565b67ffffffffffffffff8111156200052d576200052c620000b4565b5b620005398254620002f5565b620005468282856200046b565b600060209050601f8311600181146200057e576000841562000569578287015190505b620005758582620004e8565b865550620005e5565b601f1984166200058e866200032a565b60005b82811015620005b85784890151825560018201915060208501945060208101905062000591565b86831015620005d85784890151620005d4601f891682620004c8565b8355505b6001600288020188555050505b505050505050565b6102ee80620005fd6000396000f3fe6080604052600436106100385760003560e01c80630eee4f7e146100415780634e2285f11461004b5780636a67555b146100765761003f565b3661003f57005b005b6100496100a1565b005b34801561005757600080fd5b506100606100cd565b60405161006d9190610200565b60405180910390f35b34801561008257600080fd5b5061008b61015f565b604051610098919061023d565b60405180910390f35b600160009054906101000a900460ff1615600160006101000a81548160ff021916908315150217905550565b6060600080546100dc90610287565b80601f016020809104026020016040519081016040528092919081815260200182805461010890610287565b80156101555780601f1061012a57610100808354040283529160200191610155565b820191906000526020600020905b81548152906001019060200180831161013857829003601f168201915b5050505050905090565b60018054906101000a900460ff1681565b600081519050919050565b600082825260208201905092915050565b60005b838110156101aa57808201518184015260208101905061018f565b60008484015250505050565b6000601f19601f8301169050919050565b60006101d282610170565b6101dc818561017b565b93506101ec81856020860161018c565b6101f5816101b6565b840191505092915050565b6000602082019050818103600083015261021a81846101c7565b905092915050565b60008115159050919050565b61023781610222565b82525050565b6000602082019050610252600083018461022e565b92915050565b7f4e487b7100000000000000000000000000000000000000000000000000000000600052602260045260246000fd5b6000600282049050600182168061029f57607f821691505b6020821081036102b2576102b1610258565b5b5091905056fea26469706673582212201450cdfee2fd609f028f108ca1d5452b0e6d9ab9c283e18790b0a520ff628e7b64736f6c63430008120033a264697066735822122003da6768ce4bcede128c53e1e173089906f49c8b7758a7edb2a68147532c310564736f6c63430008120033",
  "linkReferences": {},
  "deployedLinkReferences": {}
}