{
  "_format": "hh-sol-artifact-1",
  "contractName": "Idw3Factory",
  "sourceName": "contracts/Idw3Factory.sol",
  "abi": [
    {
      "inputs": [
        {
          "internalType": "string",
          "name": "_vaultId",
          "type": "string"
        },
        {
          "internalType": "string",
          "name": "_typeOfId",
          "type": "string"
        }
      ],
      "name": "createIdw3",
      "outputs": [],
      "stateMutability": "payable",
      "type": "function"
    },
    {
      "inputs": [
        {
          "internalType": "uint256",
          "name": "",
          "type": "uint256"
        }
      ],
      "name": "deployedIdw3s",
      "outputs": [
        {
          "internalType": "address",
          "name": "",
          "type": "address"
        }
      ],
      "stateMutability": "view",
      "type": "function"
    },
    {
      "inputs": [],
      "name": "evaluateKYCAndVault",
      "outputs": [
        {
          "internalType": "bool",
          "name": "",
          "type": "bool"
        }
      ],
      "stateMutability": "view",
      "type": "function"
    },
    {
      "inputs": [
        {
          "internalType": "address",
          "name": "",
          "type": "address"
        },
        {
          "internalType": "uint256",
          "name": "",
          "type": "uint256"
        }
      ],
      "name": "idw3sByOwner",
      "outputs": [
        {
          "internalType": "address",
          "name": "",
          "type": "address"
        }
      ],
      "stateMutability": "view",
      "type": "function"
    }
  ],
  "bytecode": "0x608060405234801561001057600080fd5b50610fda806100206000396000f3fe608060405260043610620000445760003560e01c80636b972e8d146200004957806375dbf2e514620000695780639b62893114620000ad578063c853afba14620000f1575b600080fd5b62000067600480360381019062000061919062000484565b62000121565b005b3480156200007657600080fd5b506200009560048036038101906200008f919062000544565b62000268565b604051620000a49190620005bb565b60405180910390f35b348015620000ba57600080fd5b50620000d96004803603810190620000d3919062000609565b620002a8565b604051620000e89190620005bb565b60405180910390f35b348015620000fe57600080fd5b5062000109620002f7565b6040516200011891906200066d565b60405180910390f35b60008282604051620001339062000300565b6200014092919062000713565b604051809103906000f0801580156200015d573d6000803e3d6000fd5b5090506000819080600181540180825580915050600190039060005260206000200160009091909190916101000a81548173ffffffffffffffffffffffffffffffffffffffff021916908373ffffffffffffffffffffffffffffffffffffffff160217905550600160003373ffffffffffffffffffffffffffffffffffffffff1673ffffffffffffffffffffffffffffffffffffffff168152602001908152602001600020819080600181540180825580915050600190039060005260206000200160009091909190916101000a81548173ffffffffffffffffffffffffffffffffffffffff021916908373ffffffffffffffffffffffffffffffffffffffff160217905550505050565b600081815481106200027957600080fd5b906000526020600020016000915054906101000a900473ffffffffffffffffffffffffffffffffffffffff1681565b60016020528160005260406000208181548110620002c557600080fd5b906000526020600020016000915091509054906101000a900473ffffffffffffffffffffffffffffffffffffffff1681565b60006001905090565b610856806200074f83390190565b6000604051905090565b600080fd5b600080fd5b600080fd5b600080fd5b6000601f19601f8301169050919050565b7f4e487b7100000000000000000000000000000000000000000000000000000000600052604160045260246000fd5b62000377826200032c565b810181811067ffffffffffffffff821117156200039957620003986200033d565b5b80604052505050565b6000620003ae6200030e565b9050620003bc82826200036c565b919050565b600067ffffffffffffffff821115620003df57620003de6200033d565b5b620003ea826200032c565b9050602081019050919050565b82818337600083830152505050565b60006200041d6200041784620003c1565b620003a2565b9050828152602081018484840111156200043c576200043b62000327565b5b62000449848285620003f7565b509392505050565b600082601f83011262000469576200046862000322565b5b81356200047b84826020860162000406565b91505092915050565b600080604083850312156200049e576200049d62000318565b5b600083013567ffffffffffffffff811115620004bf57620004be6200031d565b5b620004cd8582860162000451565b925050602083013567ffffffffffffffff811115620004f157620004f06200031d565b5b620004ff8582860162000451565b9150509250929050565b6000819050919050565b6200051e8162000509565b81146200052a57600080fd5b50565b6000813590506200053e8162000513565b92915050565b6000602082840312156200055d576200055c62000318565b5b60006200056d848285016200052d565b91505092915050565b600073ffffffffffffffffffffffffffffffffffffffff82169050919050565b6000620005a38262000576565b9050919050565b620005b58162000596565b82525050565b6000602082019050620005d26000830184620005aa565b92915050565b620005e38162000596565b8114620005ef57600080fd5b50565b6000813590506200060381620005d8565b92915050565b6000806040838503121562000623576200062262000318565b5b60006200063385828601620005f2565b925050602062000646858286016200052d565b9150509250929050565b60008115159050919050565b620006678162000650565b82525050565b60006020820190506200068460008301846200065c565b92915050565b600081519050919050565b600082825260208201905092915050565b60005b83811015620006c6578082015181840152602081019050620006a9565b60008484015250505050565b6000620006df826200068a565b620006eb818562000695565b9350620006fd818560208601620006a6565b62000708816200032c565b840191505092915050565b600060408201905081810360008301526200072f8185620006d2565b90508181036020830152620007458184620006d2565b9050939250505056fe60806040523480156200001157600080fd5b506040516200085638038062000856833981810160405281019062000037919062000211565b8160009081620000489190620004e1565b5080600290816200005a9190620004e1565b506000600160006101000a81548160ff0219169083151502179055505050620005c8565b6000604051905090565b600080fd5b600080fd5b600080fd5b600080fd5b6000601f19601f8301169050919050565b7f4e487b7100000000000000000000000000000000000000000000000000000000600052604160045260246000fd5b620000e7826200009c565b810181811067ffffffffffffffff82111715620001095762000108620000ad565b5b80604052505050565b60006200011e6200007e565b90506200012c8282620000dc565b919050565b600067ffffffffffffffff8211156200014f576200014e620000ad565b5b6200015a826200009c565b9050602081019050919050565b60005b83811015620001875780820151818401526020810190506200016a565b60008484015250505050565b6000620001aa620001a48462000131565b62000112565b905082815260208101848484011115620001c957620001c862000097565b5b620001d684828562000167565b509392505050565b600082601f830112620001f657620001f562000092565b5b81516200020884826020860162000193565b91505092915050565b600080604083850312156200022b576200022a62000088565b5b600083015167ffffffffffffffff8111156200024c576200024b6200008d565b5b6200025a85828601620001de565b925050602083015167ffffffffffffffff8111156200027e576200027d6200008d565b5b6200028c85828601620001de565b9150509250929050565b600081519050919050565b7f4e487b7100000000000000000000000000000000000000000000000000000000600052602260045260246000fd5b60006002820490506001821680620002e957607f821691505b602082108103620002ff57620002fe620002a1565b5b50919050565b60008190508160005260206000209050919050565b60006020601f8301049050919050565b600082821b905092915050565b600060088302620003697fffffffffffffffffffffffffffffffffffffffffffffffffffffffffffffffff826200032a565b6200037586836200032a565b95508019841693508086168417925050509392505050565b6000819050919050565b6000819050919050565b6000620003c2620003bc620003b6846200038d565b62000397565b6200038d565b9050919050565b6000819050919050565b620003de83620003a1565b620003f6620003ed82620003c9565b84845462000337565b825550505050565b600090565b6200040d620003fe565b6200041a818484620003d3565b505050565b5b8181101562000442576200043660008262000403565b60018101905062000420565b5050565b601f82111562000491576200045b8162000305565b62000466846200031a565b8101602085101562000476578190505b6200048e62000485856200031a565b8301826200041f565b50505b505050565b600082821c905092915050565b6000620004b66000198460080262000496565b1980831691505092915050565b6000620004d18383620004a3565b9150826002028217905092915050565b620004ec8262000296565b67ffffffffffffffff811115620005085762000507620000ad565b5b620005148254620002d0565b6200052182828562000446565b600060209050601f83116001811462000559576000841562000544578287015190505b620005508582620004c3565b865550620005c0565b601f198416620005698662000305565b60005b8281101562000593578489015182556001820191506020850194506020810190506200056c565b86831015620005b35784890151620005af601f891682620004a3565b8355505b6001600288020188555050505b505050505050565b61027e80620005d86000396000f3fe60806040526004361061002d5760003560e01c80630eee4f7e146100365780634e2285f11461004d57610034565b3661003457005b005b34801561004257600080fd5b5061004b610078565b005b34801561005957600080fd5b506100626100a4565b60405161006f91906101c6565b60405180910390f35b600160009054906101000a900460ff1615600160006101000a81548160ff021916908315150217905550565b6060600080546100b390610217565b80601f01602080910402602001604051908101604052809291908181526020018280546100df90610217565b801561012c5780601f106101015761010080835404028352916020019161012c565b820191906000526020600020905b81548152906001019060200180831161010f57829003601f168201915b5050505050905090565b600081519050919050565b600082825260208201905092915050565b60005b83811015610170578082015181840152602081019050610155565b60008484015250505050565b6000601f19601f8301169050919050565b600061019882610136565b6101a28185610141565b93506101b2818560208601610152565b6101bb8161017c565b840191505092915050565b600060208201905081810360008301526101e0818461018d565b905092915050565b7f4e487b7100000000000000000000000000000000000000000000000000000000600052602260045260246000fd5b6000600282049050600182168061022f57607f821691505b602082108103610242576102416101e8565b5b5091905056fea2646970667358221220c9063b3f7f288dac2f3696a8e9805e8b725970f62184d87bd8813688885d878864736f6c63430008120033a26469706673582212200b5f2775e45ba993279bcf29f395cf7520582bc8f4a9021b2f80e6514813809d64736f6c63430008120033",
  "linkReferences": {},
  "deployedLinkReferences": {}
}