{
  "_format": "hh-sol-artifact-1",
  "contractName": "Idw3Factory",
  "sourceName": "contracts/Idw3Factory.sol",
  "abi": [
    {
      "inputs": [
        {
          "internalType": "bytes16",
          "name": "appId",
          "type": "bytes16"
        }
      ],
      "stateMutability": "nonpayable",
      "type": "constructor"
    },
    {
      "inputs": [
        {
          "internalType": "enum AuthType",
          "name": "authType",
          "type": "uint8"
        }
      ],
      "name": "AuthTypeNotFoundInVerifiedResult",
      "type": "error"
    },
    {
      "anonymous": false,
      "inputs": [
        {
          "indexed": true,
          "internalType": "bytes32",
          "name": "id",
          "type": "bytes32"
        }
      ],
      "name": "ChainlinkCancelled",
      "type": "event"
    },
    {
      "anonymous": false,
      "inputs": [
        {
          "indexed": true,
          "internalType": "bytes32",
          "name": "id",
          "type": "bytes32"
        }
      ],
      "name": "ChainlinkFulfilled",
      "type": "event"
    },
    {
      "anonymous": false,
      "inputs": [
        {
          "indexed": true,
          "internalType": "bytes32",
          "name": "id",
          "type": "bytes32"
        }
      ],
      "name": "ChainlinkRequested",
      "type": "event"
    },
    {
      "anonymous": false,
      "inputs": [
        {
          "indexed": true,
          "internalType": "address",
          "name": "from",
          "type": "address"
        },
        {
          "indexed": true,
          "internalType": "address",
          "name": "to",
          "type": "address"
        }
      ],
      "name": "OwnershipTransferRequested",
      "type": "event"
    },
    {
      "anonymous": false,
      "inputs": [
        {
          "indexed": true,
          "internalType": "address",
          "name": "from",
          "type": "address"
        },
        {
          "indexed": true,
          "internalType": "address",
          "name": "to",
          "type": "address"
        }
      ],
      "name": "OwnershipTransferred",
      "type": "event"
    },
    {
      "anonymous": false,
      "inputs": [
        {
          "indexed": true,
          "internalType": "bytes32",
          "name": "requestId",
          "type": "bytes32"
        },
        {
          "indexed": false,
          "internalType": "bool",
          "name": "volume",
          "type": "bool"
        }
      ],
      "name": "RequestVolume",
      "type": "event"
    },
    {
      "inputs": [],
      "name": "ADDRESSES_PROVIDER",
      "outputs": [
        {
          "internalType": "contract IAddressesProvider",
          "name": "",
          "type": "address"
        }
      ],
      "stateMutability": "view",
      "type": "function"
    },
    {
      "inputs": [],
      "name": "SISMO_CONNECT_LIB_VERSION",
      "outputs": [
        {
          "internalType": "uint256",
          "name": "",
          "type": "uint256"
        }
      ],
      "stateMutability": "view",
      "type": "function"
    },
    {
      "inputs": [],
      "name": "acceptOwnership",
      "outputs": [],
      "stateMutability": "nonpayable",
      "type": "function"
    },
    {
      "inputs": [],
      "name": "appId",
      "outputs": [
        {
          "internalType": "bytes16",
          "name": "",
          "type": "bytes16"
        }
      ],
      "stateMutability": "view",
      "type": "function"
    },
    {
      "inputs": [
        {
          "internalType": "bool",
          "name": "isSelectableByUser",
          "type": "bool"
        }
      ],
      "name": "buildSignature",
      "outputs": [
        {
          "components": [
            {
              "internalType": "bytes",
              "name": "message",
              "type": "bytes"
            },
            {
              "internalType": "bool",
              "name": "isSelectableByUser",
              "type": "bool"
            },
            {
              "internalType": "bytes",
              "name": "extraData",
              "type": "bytes"
            }
          ],
          "internalType": "struct SignatureRequest",
          "name": "",
          "type": "tuple"
        }
      ],
      "stateMutability": "view",
      "type": "function"
    },
    {
      "inputs": [
        {
          "internalType": "bytes",
          "name": "message",
          "type": "bytes"
        },
        {
          "internalType": "bytes",
          "name": "extraData",
          "type": "bytes"
        }
      ],
      "name": "buildSignature",
      "outputs": [
        {
          "components": [
            {
              "internalType": "bytes",
              "name": "message",
              "type": "bytes"
            },
            {
              "internalType": "bool",
              "name": "isSelectableByUser",
              "type": "bool"
            },
            {
              "internalType": "bytes",
              "name": "extraData",
              "type": "bytes"
            }
          ],
          "internalType": "struct SignatureRequest",
          "name": "",
          "type": "tuple"
        }
      ],
      "stateMutability": "view",
      "type": "function"
    },
    {
      "inputs": [
        {
          "internalType": "bool",
          "name": "isSelectableByUser",
          "type": "bool"
        },
        {
          "internalType": "bytes",
          "name": "extraData",
          "type": "bytes"
        }
      ],
      "name": "buildSignature",
      "outputs": [
        {
          "components": [
            {
              "internalType": "bytes",
              "name": "message",
              "type": "bytes"
            },
            {
              "internalType": "bool",
              "name": "isSelectableByUser",
              "type": "bool"
            },
            {
              "internalType": "bytes",
              "name": "extraData",
              "type": "bytes"
            }
          ],
          "internalType": "struct SignatureRequest",
          "name": "",
          "type": "tuple"
        }
      ],
      "stateMutability": "view",
      "type": "function"
    },
    {
      "inputs": [
        {
          "internalType": "bytes",
          "name": "message",
          "type": "bytes"
        },
        {
          "internalType": "bool",
          "name": "isSelectableByUser",
          "type": "bool"
        },
        {
          "internalType": "bytes",
          "name": "extraData",
          "type": "bytes"
        }
      ],
      "name": "buildSignature",
      "outputs": [
        {
          "components": [
            {
              "internalType": "bytes",
              "name": "message",
              "type": "bytes"
            },
            {
              "internalType": "bool",
              "name": "isSelectableByUser",
              "type": "bool"
            },
            {
              "internalType": "bytes",
              "name": "extraData",
              "type": "bytes"
            }
          ],
          "internalType": "struct SignatureRequest",
          "name": "",
          "type": "tuple"
        }
      ],
      "stateMutability": "view",
      "type": "function"
    },
    {
      "inputs": [
        {
          "internalType": "bytes",
          "name": "sismoConnectResponse",
          "type": "bytes"
        },
        {
          "internalType": "bool",
          "name": "_typeOfId",
          "type": "bool"
        }
      ],
      "name": "createIdw3",
      "outputs": [],
      "stateMutability": "payable",
      "type": "function"
    },
    {
      "inputs": [
        {
          "internalType": "uint256",
          "name": "",
          "type": "uint256"
        }
      ],
      "name": "deployedIdw3s",
      "outputs": [
        {
          "internalType": "address",
          "name": "",
          "type": "address"
        }
      ],
      "stateMutability": "view",
      "type": "function"
    },
    {
      "inputs": [],
      "name": "evaluateIfUserHasIdw3",
      "outputs": [
        {
          "internalType": "bool",
          "name": "",
          "type": "bool"
        }
      ],
      "stateMutability": "view",
      "type": "function"
    },
    {
      "inputs": [
        {
          "internalType": "bytes32",
          "name": "_requestId",
          "type": "bytes32"
        },
        {
          "internalType": "bool",
          "name": "_volume",
          "type": "bool"
        }
      ],
      "name": "fulfill",
      "outputs": [],
      "stateMutability": "nonpayable",
      "type": "function"
    },
    {
      "inputs": [
        {
          "internalType": "address",
          "name": "",
          "type": "address"
        }
      ],
      "name": "idw3Owners",
      "outputs": [
        {
          "internalType": "bool",
          "name": "",
          "type": "bool"
        }
      ],
      "stateMutability": "view",
      "type": "function"
    },
    {
      "inputs": [
        {
          "internalType": "address",
          "name": "",
          "type": "address"
        }
      ],
      "name": "idw3s",
      "outputs": [
        {
          "internalType": "address",
          "name": "",
          "type": "address"
        }
      ],
      "stateMutability": "view",
      "type": "function"
    },
    {
      "inputs": [
        {
          "internalType": "uint256",
          "name": "",
          "type": "uint256"
        }
      ],
      "name": "minted",
      "outputs": [
        {
          "internalType": "bool",
          "name": "",
          "type": "bool"
        }
      ],
      "stateMutability": "view",
      "type": "function"
    },
    {
      "inputs": [],
      "name": "owner",
      "outputs": [
        {
          "internalType": "address",
          "name": "",
          "type": "address"
        }
      ],
      "stateMutability": "view",
      "type": "function"
    },
    {
      "inputs": [
        {
          "internalType": "bytes32",
          "name": "",
          "type": "bytes32"
        }
      ],
      "name": "requestIdToVaultId",
      "outputs": [
        {
          "internalType": "uint256",
          "name": "vaultId",
          "type": "uint256"
        },
        {
          "internalType": "address",
          "name": "userAddress",
          "type": "address"
        },
        {
          "internalType": "bool",
          "name": "typeId",
          "type": "bool"
        }
      ],
      "stateMutability": "view",
      "type": "function"
    },
    {
      "inputs": [
        {
          "internalType": "address",
          "name": "to",
          "type": "address"
        }
      ],
      "name": "transferOwnership",
      "outputs": [],
      "stateMutability": "nonpayable",
      "type": "function"
    }
  ],
  "bytecode": "0x60806040526001600a553480156200001657600080fd5b50604051620053a9380380620053a983398181016040528101906200003c91906200094e565b338060008380600560006101000a8154816fffffffffffffffffffffffffffffffff021916908360801c0217905550733340ac0cafb3ae34ddd53dba0d7344c1cf3efe0573ffffffffffffffffffffffffffffffffffffffff1663693ec85e6040518060400160405280601781526020017f7369736d6f436f6e6e65637456657269666965722d76310000000000000000008152506040518263ffffffff1660e01b8152600401620000ef919062000a1a565b602060405180830381865afa1580156200010d573d6000803e3d6000fd5b505050506040513d601f19601f8201168201806040525081019062000133919062000aa3565b6000806101000a81548173ffffffffffffffffffffffffffffffffffffffff021916908373ffffffffffffffffffffffffffffffffffffffff160217905550733340ac0cafb3ae34ddd53dba0d7344c1cf3efe0573ffffffffffffffffffffffffffffffffffffffff1663693ec85e6040518060400160405280601581526020017f61757468526571756573744275696c6465722d763100000000000000000000008152506040518263ffffffff1660e01b8152600401620001f6919062000a1a565b602060405180830381865afa15801562000214573d6000803e3d6000fd5b505050506040513d601f19601f820116820180604052508101906200023a919062000aa3565b600160006101000a81548173ffffffffffffffffffffffffffffffffffffffff021916908373ffffffffffffffffffffffffffffffffffffffff160217905550733340ac0cafb3ae34ddd53dba0d7344c1cf3efe0573ffffffffffffffffffffffffffffffffffffffff1663693ec85e6040518060400160405280601681526020017f636c61696d526571756573744275696c6465722d7631000000000000000000008152506040518263ffffffff1660e01b8152600401620002fe919062000a1a565b602060405180830381865afa1580156200031c573d6000803e3d6000fd5b505050506040513d601f19601f8201168201806040525081019062000342919062000aa3565b600260006101000a81548173ffffffffffffffffffffffffffffffffffffffff021916908373ffffffffffffffffffffffffffffffffffffffff160217905550733340ac0cafb3ae34ddd53dba0d7344c1cf3efe0573ffffffffffffffffffffffffffffffffffffffff1663693ec85e6040518060400160405280601381526020017f7369676e61747572654275696c6465722d7631000000000000000000000000008152506040518263ffffffff1660e01b815260040162000406919062000a1a565b602060405180830381865afa15801562000424573d6000803e3d6000fd5b505050506040513d601f19601f820116820180604052508101906200044a919062000aa3565b600360006101000a81548173ffffffffffffffffffffffffffffffffffffffff021916908373ffffffffffffffffffffffffffffffffffffffff160217905550733340ac0cafb3ae34ddd53dba0d7344c1cf3efe0573ffffffffffffffffffffffffffffffffffffffff1663693ec85e6040518060400160405280601181526020017f726571756573744275696c6465722d76310000000000000000000000000000008152506040518263ffffffff1660e01b81526004016200050e919062000a1a565b602060405180830381865afa1580156200052c573d6000803e3d6000fd5b505050506040513d601f19601f8201168201806040525081019062000552919062000aa3565b600460006101000a81548173ffffffffffffffffffffffffffffffffffffffff021916908373ffffffffffffffffffffffffffffffffffffffff16021790555050600073ffffffffffffffffffffffffffffffffffffffff168273ffffffffffffffffffffffffffffffffffffffff160362000605576040517f08c379a0000000000000000000000000000000000000000000000000000000008152600401620005fc9062000b25565b60405180910390fd5b81600c60006101000a81548173ffffffffffffffffffffffffffffffffffffffff021916908373ffffffffffffffffffffffffffffffffffffffff160217905550600073ffffffffffffffffffffffffffffffffffffffff168173ffffffffffffffffffffffffffffffffffffffff16146200068d576200068c816200073360201b60201c565b5b505050620006b573779877a7b0d9e8603169ddbd7836e478b46247896200086460201b60201c565b620006da736090149792daaee9d1d568c9f9a6f6b46aa29efd620008a860201b60201c565b7f6331633565393238383038393465623662323764336361653139363730616133601481905550600a670de0b6b3a764000060016200071a919062000b80565b62000726919062000bfa565b6015819055505062000ca4565b3373ffffffffffffffffffffffffffffffffffffffff168173ffffffffffffffffffffffffffffffffffffffff1603620007a4576040517f08c379a00000000000000000000000000000000000000000000000000000000081526004016200079b9062000c82565b60405180910390fd5b80600d60006101000a81548173ffffffffffffffffffffffffffffffffffffffff021916908373ffffffffffffffffffffffffffffffffffffffff1602179055508073ffffffffffffffffffffffffffffffffffffffff16600c60009054906101000a900473ffffffffffffffffffffffffffffffffffffffff1673ffffffffffffffffffffffffffffffffffffffff167fed8889f560326eb138920d842192f0eb3dd22b4f139c87a2c57538e05bae127860405160405180910390a350565b80600860006101000a81548173ffffffffffffffffffffffffffffffffffffffff021916908373ffffffffffffffffffffffffffffffffffffffff16021790555050565b80600960006101000a81548173ffffffffffffffffffffffffffffffffffffffff021916908373ffffffffffffffffffffffffffffffffffffffff16021790555050565b600080fd5b60007fffffffffffffffffffffffffffffffff0000000000000000000000000000000082169050919050565b6200092881620008f1565b81146200093457600080fd5b50565b60008151905062000948816200091d565b92915050565b600060208284031215620009675762000966620008ec565b5b6000620009778482850162000937565b91505092915050565b600081519050919050565b600082825260208201905092915050565b60005b83811015620009bc5780820151818401526020810190506200099f565b60008484015250505050565b6000601f19601f8301169050919050565b6000620009e68262000980565b620009f281856200098b565b935062000a048185602086016200099c565b62000a0f81620009c8565b840191505092915050565b6000602082019050818103600083015262000a368184620009d9565b905092915050565b600073ffffffffffffffffffffffffffffffffffffffff82169050919050565b600062000a6b8262000a3e565b9050919050565b62000a7d8162000a5e565b811462000a8957600080fd5b50565b60008151905062000a9d8162000a72565b92915050565b60006020828403121562000abc5762000abb620008ec565b5b600062000acc8482850162000a8c565b91505092915050565b7f43616e6e6f7420736574206f776e657220746f207a65726f0000000000000000600082015250565b600062000b0d6018836200098b565b915062000b1a8262000ad5565b602082019050919050565b6000602082019050818103600083015262000b408162000afe565b9050919050565b6000819050919050565b7f4e487b7100000000000000000000000000000000000000000000000000000000600052601160045260246000fd5b600062000b8d8262000b47565b915062000b9a8362000b47565b925082820262000baa8162000b47565b9150828204841483151762000bc45762000bc362000b51565b5b5092915050565b7f4e487b7100000000000000000000000000000000000000000000000000000000600052601260045260246000fd5b600062000c078262000b47565b915062000c148362000b47565b92508262000c275762000c2662000bcb565b5b828204905092915050565b7f43616e6e6f74207472616e7366657220746f2073656c66000000000000000000600082015250565b600062000c6a6017836200098b565b915062000c778262000c32565b602082019050919050565b6000602082019050818103600083015262000c9d8162000c5b565b9050919050565b6146f58062000cb46000396000f3fe608060405260043610620001225760003560e01c806380afdea811620000a3578063c9512d99116200006d578063c9512d9914620003ff578063cea8eb4e146200042f578063e06897031462000473578063f2fde38b14620004b7578063fd68990a14620004e55762000122565b806380afdea8146200033b5780638cd592f5146200036b5780638da5cb5b146200038b578063ae6c25fa14620003bb5762000122565b806366aaa4b711620000f157806366aaa4b714620002115780636e01370e146200025557806375dbf2e5146200029957806379ba509714620002dd5780637dc0bf3f14620002f75762000122565b80630542975c14620001275780634916119514620001575780635ce12f10146200019b5780635ce8414714620001e1575b600080fd5b3480156200013457600080fd5b506200013f62000513565b6040516200014e919062001714565b60405180910390f35b3480156200016457600080fd5b506200018360048036038101906200017d919062001782565b6200052b565b604051620001929190620018bc565b60405180910390f35b348015620001a857600080fd5b50620001c76004803603810190620001c191906200191b565b620005e2565b604051620001d8939291906200199e565b60405180910390f35b348015620001ee57600080fd5b50620001f962000639565b604051620002089190620019db565b60405180910390f35b3480156200021e57600080fd5b506200023d600480360381019062000237919062001a29565b620006a6565b6040516200024c9190620019db565b60405180910390f35b3480156200026257600080fd5b506200028160048036038101906200027b919062001bac565b620006c6565b604051620002909190620018bc565b60405180910390f35b348015620002a657600080fd5b50620002c56004803603810190620002bf919062001c62565b62000780565b604051620002d4919062001c94565b60405180910390f35b348015620002ea57600080fd5b50620002f5620007c0565b005b3480156200030457600080fd5b506200032360048036038101906200031d919062001c62565b6200095a565b604051620003329190620019db565b60405180910390f35b3480156200034857600080fd5b50620003536200097a565b60405162000362919062001cee565b60405180910390f35b62000389600480360381019062000383919062001d74565b6200098d565b005b3480156200039857600080fd5b50620003a362000a11565b604051620003b2919062001c94565b60405180910390f35b348015620003c857600080fd5b50620003e76004803603810190620003e1919062001a29565b62000a3b565b604051620003f6919062001c94565b60405180910390f35b3480156200040c57600080fd5b506200041762000a6e565b60405162000426919062001dde565b60405180910390f35b3480156200043c57600080fd5b506200045b600480360381019062000455919062001dfb565b62000a73565b6040516200046a9190620018bc565b60405180910390f35b3480156200048057600080fd5b506200049f600480360381019062000499919062001e61565b62000b2d565b604051620004ae9190620018bc565b60405180910390f35b348015620004c457600080fd5b50620004e36004803603810190620004dd919062001a29565b62000bea565b005b348015620004f257600080fd5b506200051160048036038101906200050b919062001efb565b62000c02565b005b733340ac0cafb3ae34ddd53dba0d7344c1cf3efe0581565b620005356200154b565b600360009054906101000a900473ffffffffffffffffffffffffffffffffffffffff1673ffffffffffffffffffffffffffffffffffffffff16633ed8572e836040518263ffffffff1660e01b8152600401620005929190620019db565b600060405180830381865afa158015620005b0573d6000803e3d6000fd5b505050506040513d6000823e3d601f19601f82011682018060405250810190620005db91906200208e565b9050919050565b60126020528060005260406000206000915090508060000154908060010160009054906101000a900473ffffffffffffffffffffffffffffffffffffffff16908060010160149054906101000a900460ff16905083565b600060011515600f60003373ffffffffffffffffffffffffffffffffffffffff1673ffffffffffffffffffffffffffffffffffffffff16815260200190815260200160002060009054906101000a900460ff161515036200069e5760019050620006a3565b600090505b90565b600f6020528060005260406000206000915054906101000a900460ff1681565b620006d06200154b565b600360009054906101000a900473ffffffffffffffffffffffffffffffffffffffff1673ffffffffffffffffffffffffffffffffffffffff16635de3b44c84846040518363ffffffff1660e01b81526004016200072f92919062002131565b600060405180830381865afa1580156200074d573d6000803e3d6000fd5b505050506040513d6000823e3d601f19601f820116820180604052508101906200077891906200208e565b905092915050565b600e81815481106200079157600080fd5b906000526020600020016000915054906101000a900473ffffffffffffffffffffffffffffffffffffffff1681565b600d60009054906101000a900473ffffffffffffffffffffffffffffffffffffffff1673ffffffffffffffffffffffffffffffffffffffff163373ffffffffffffffffffffffffffffffffffffffff161462000853576040517f08c379a00000000000000000000000000000000000000000000000000000000081526004016200084a90620021cd565b60405180910390fd5b6000600c60009054906101000a900473ffffffffffffffffffffffffffffffffffffffff16905033600c60006101000a81548173ffffffffffffffffffffffffffffffffffffffff021916908373ffffffffffffffffffffffffffffffffffffffff1602179055506000600d60006101000a81548173ffffffffffffffffffffffffffffffffffffffff021916908373ffffffffffffffffffffffffffffffffffffffff1602179055503373ffffffffffffffffffffffffffffffffffffffff168173ffffffffffffffffffffffffffffffffffffffff167f8be0079c531659141344cd1fd0a4f28419497f9722a3daafe3b4186f6b6457e060405160405180910390a350565b60116020528060005260406000206000915054906101000a900460ff1681565b600560009054906101000a900460801b81565b6000620009ea84848080601f016020809104026020016040519081016040528093929190818152602001838380828437600081840152601f19601f82011690508083019250505050505050620009e4600062000e08565b62000ebf565b90506000620009fb82600062000fa4565b905062000a0a8133856200109c565b5050505050565b6000600c60009054906101000a900473ffffffffffffffffffffffffffffffffffffffff16905090565b60106020528060005260406000206000915054906101000a900473ffffffffffffffffffffffffffffffffffffffff1681565b600281565b62000a7d6200154b565b600360009054906101000a900473ffffffffffffffffffffffffffffffffffffffff1673ffffffffffffffffffffffffffffffffffffffff16637476d1ac84846040518363ffffffff1660e01b815260040162000adc929190620021ef565b600060405180830381865afa15801562000afa573d6000803e3d6000fd5b505050506040513d6000823e3d601f19601f8201168201806040525081019062000b2591906200208e565b905092915050565b62000b376200154b565b600360009054906101000a900473ffffffffffffffffffffffffffffffffffffffff1673ffffffffffffffffffffffffffffffffffffffff16631f785c958585856040518463ffffffff1660e01b815260040162000b989392919062002223565b600060405180830381865afa15801562000bb6573d6000803e3d6000fd5b505050506040513d6000823e3d601f19601f8201168201806040525081019062000be191906200208e565b90509392505050565b62000bf46200120a565b62000bff816200129f565b50565b81600b600082815260200190815260200160002060009054906101000a900473ffffffffffffffffffffffffffffffffffffffff1673ffffffffffffffffffffffffffffffffffffffff163373ffffffffffffffffffffffffffffffffffffffff161462000ca7576040517f08c379a000000000000000000000000000000000000000000000000000000000815260040162000c9e90620022e4565b60405180910390fd5b600b600082815260200190815260200160002060006101000a81549073ffffffffffffffffffffffffffffffffffffffff0219169055807f7cc135e0cebb02c3480ae5d74d377283180a2601f8f644edf7987b009316c63a60405160405180910390a2811562000e0357600060126000858152602001908152602001600020604051806060016040529081600082015481526020016001820160009054906101000a900473ffffffffffffffffffffffffffffffffffffffff1673ffffffffffffffffffffffffffffffffffffffff1673ffffffffffffffffffffffffffffffffffffffff1681526020016001820160149054906101000a900460ff161515151581525050905062000dc78160000151826020015183604001516200109c565b837ff6b72b588e4eab35c81d99172a15b73bc78d2b9c9424a1490a442c131fe518d88460405162000df99190620019db565b60405180910390a2505b505050565b62000e126200156e565b600160009054906101000a900473ffffffffffffffffffffffffffffffffffffffff1673ffffffffffffffffffffffffffffffffffffffff16633a0ba6ff836040518263ffffffff1660e01b815260040162000e6f919062002386565b600060405180830381865afa15801562000e8d573d6000803e3d6000fd5b505050506040513d6000823e3d601f19601f8201168201806040525081019062000eb89190620024b2565b9050919050565b62000ec9620015bf565b60008380602001905181019062000ee1919062002bd2565b9050600062000ef084620013d0565b905060008054906101000a900473ffffffffffffffffffffffffffffffffffffffff1673ffffffffffffffffffffffffffffffffffffffff16632a7f5d6483836040518363ffffffff1660e01b815260040162000f4f92919062003523565b6000604051808303816000875af115801562000f6f573d6000803e3d6000fd5b505050506040513d6000823e3d601f19601f8201168201806040525081019062000f9a919062003a38565b9250505092915050565b600080600090505b836060015151811015620010565782600381111562000fd05762000fcf62002306565b5b8460600151828151811062000fea5762000fe962003a89565b5b60200260200101516000015160038111156200100b576200100a62002306565b5b036200104057836060015181815181106200102b576200102a62003a89565b5b60200260200101516040015191505062001096565b80806200104d9062003ae7565b91505062000fac565b50816040517f267ac2cf0000000000000000000000000000000000000000000000000000000081526004016200108d919062002386565b60405180910390fd5b92915050565b6011600084815260200190815260200160002060009054906101000a900460ff16620012055760008382604051620010d4906200161e565b620010e192919062003b34565b604051809103906000f080158015620010fe573d6000803e3d6000fd5b5090506001600f60008573ffffffffffffffffffffffffffffffffffffffff1673ffffffffffffffffffffffffffffffffffffffff16815260200190815260200160002060006101000a81548160ff02191690831515021790555080601060008573ffffffffffffffffffffffffffffffffffffffff1673ffffffffffffffffffffffffffffffffffffffff16815260200190815260200160002060006101000a81548173ffffffffffffffffffffffffffffffffffffffff021916908373ffffffffffffffffffffffffffffffffffffffff16021790555060016011600086815260200190815260200160002060006101000a81548160ff021916908315150217905550505b505050565b600c60009054906101000a900473ffffffffffffffffffffffffffffffffffffffff1673ffffffffffffffffffffffffffffffffffffffff163373ffffffffffffffffffffffffffffffffffffffff16146200129d576040517f08c379a0000000000000000000000000000000000000000000000000000000008152600401620012949062003bb1565b60405180910390fd5b565b3373ffffffffffffffffffffffffffffffffffffffff168173ffffffffffffffffffffffffffffffffffffffff160362001310576040517f08c379a0000000000000000000000000000000000000000000000000000000008152600401620013079062003c23565b60405180910390fd5b80600d60006101000a81548173ffffffffffffffffffffffffffffffffffffffff021916908373ffffffffffffffffffffffffffffffffffffffff1602179055508073ffffffffffffffffffffffffffffffffffffffff16600c60009054906101000a900473ffffffffffffffffffffffffffffffffffffffff1673ffffffffffffffffffffffffffffffffffffffff167fed8889f560326eb138920d842192f0eb3dd22b4f139c87a2c57538e05bae127860405160405180910390a350565b620013da6200162c565b600460009054906101000a900473ffffffffffffffffffffffffffffffffffffffff1673ffffffffffffffffffffffffffffffffffffffff166310c5d31b8362001423620014a3565b600560009054906101000a900460801b6040518463ffffffff1660e01b8152600401620014539392919062003cda565b600060405180830381865afa15801562001471573d6000803e3d6000fd5b505050506040513d6000823e3d601f19601f820116820180604052508101906200149c9190620040f1565b9050919050565b620014ad6200154b565b600360009054906101000a900473ffffffffffffffffffffffffffffffffffffffff1673ffffffffffffffffffffffffffffffffffffffff1663800e65f26040518163ffffffff1660e01b8152600401600060405180830381865afa1580156200151b573d6000803e3d6000fd5b505050506040513d6000823e3d601f19601f820116820180604052508101906200154691906200208e565b905090565b604051806060016040528060608152602001600015158152602001606081525090565b6040518060c001604052806000600381111562001590576200158f62002306565b5b815260200160008152602001600015158152602001600015158152602001600015158152602001606081525090565b6040518060c0016040528060006fffffffffffffffffffffffffffffffff1916815260200160006fffffffffffffffffffffffffffffffff19168152602001600080191681526020016060815260200160608152602001606081525090565b61057d806200414383390190565b6040518060a0016040528060006fffffffffffffffffffffffffffffffff1916815260200160006fffffffffffffffffffffffffffffffff191681526020016060815260200160608152602001620016836200154b565b81525090565b600073ffffffffffffffffffffffffffffffffffffffff82169050919050565b6000819050919050565b6000620016d4620016ce620016c88462001689565b620016a9565b62001689565b9050919050565b6000620016e882620016b3565b9050919050565b6000620016fc82620016db565b9050919050565b6200170e81620016ef565b82525050565b60006020820190506200172b600083018462001703565b92915050565b6000604051905090565b600080fd5b600080fd5b60008115159050919050565b6200175c8162001745565b81146200176857600080fd5b50565b6000813590506200177c8162001751565b92915050565b6000602082840312156200179b576200179a6200173b565b5b6000620017ab848285016200176b565b91505092915050565b600081519050919050565b600082825260208201905092915050565b60005b83811015620017f0578082015181840152602081019050620017d3565b60008484015250505050565b6000601f19601f8301169050919050565b60006200181a82620017b4565b620018268185620017bf565b935062001838818560208601620017d0565b6200184381620017fc565b840191505092915050565b620018598162001745565b82525050565b600060608301600083015184820360008601526200187e82826200180d565b91505060208301516200189560208601826200184e565b5060408301518482036040860152620018af82826200180d565b9150508091505092915050565b60006020820190508181036000830152620018d881846200185f565b905092915050565b6000819050919050565b620018f581620018e0565b81146200190157600080fd5b50565b6000813590506200191581620018ea565b92915050565b6000602082840312156200193457620019336200173b565b5b6000620019448482850162001904565b91505092915050565b6000819050919050565b62001962816200194d565b82525050565b6000620019758262001689565b9050919050565b620019878162001968565b82525050565b620019988162001745565b82525050565b6000606082019050620019b5600083018662001957565b620019c460208301856200197c565b620019d360408301846200198d565b949350505050565b6000602082019050620019f260008301846200198d565b92915050565b62001a038162001968565b811462001a0f57600080fd5b50565b60008135905062001a2381620019f8565b92915050565b60006020828403121562001a425762001a416200173b565b5b600062001a528482850162001a12565b91505092915050565b600080fd5b600080fd5b7f4e487b7100000000000000000000000000000000000000000000000000000000600052604160045260246000fd5b62001a9f82620017fc565b810181811067ffffffffffffffff8211171562001ac15762001ac062001a65565b5b80604052505050565b600062001ad662001731565b905062001ae4828262001a94565b919050565b600067ffffffffffffffff82111562001b075762001b0662001a65565b5b62001b1282620017fc565b9050602081019050919050565b82818337600083830152505050565b600062001b4562001b3f8462001ae9565b62001aca565b90508281526020810184848401111562001b645762001b6362001a60565b5b62001b7184828562001b1f565b509392505050565b600082601f83011262001b915762001b9062001a5b565b5b813562001ba384826020860162001b2e565b91505092915050565b6000806040838503121562001bc65762001bc56200173b565b5b600083013567ffffffffffffffff81111562001be75762001be662001740565b5b62001bf58582860162001b79565b925050602083013567ffffffffffffffff81111562001c195762001c1862001740565b5b62001c278582860162001b79565b9150509250929050565b62001c3c816200194d565b811462001c4857600080fd5b50565b60008135905062001c5c8162001c31565b92915050565b60006020828403121562001c7b5762001c7a6200173b565b5b600062001c8b8482850162001c4b565b91505092915050565b600060208201905062001cab60008301846200197c565b92915050565b60007fffffffffffffffffffffffffffffffff0000000000000000000000000000000082169050919050565b62001ce88162001cb1565b82525050565b600060208201905062001d05600083018462001cdd565b92915050565b600080fd5b600080fd5b60008083601f84011262001d2e5762001d2d62001a5b565b5b8235905067ffffffffffffffff81111562001d4e5762001d4d62001d0b565b5b60208301915083600182028301111562001d6d5762001d6c62001d10565b5b9250929050565b60008060006040848603121562001d905762001d8f6200173b565b5b600084013567ffffffffffffffff81111562001db15762001db062001740565b5b62001dbf8682870162001d15565b9350935050602062001dd4868287016200176b565b9150509250925092565b600060208201905062001df5600083018462001957565b92915050565b6000806040838503121562001e155762001e146200173b565b5b600062001e25858286016200176b565b925050602083013567ffffffffffffffff81111562001e495762001e4862001740565b5b62001e578582860162001b79565b9150509250929050565b60008060006060848603121562001e7d5762001e7c6200173b565b5b600084013567ffffffffffffffff81111562001e9e5762001e9d62001740565b5b62001eac8682870162001b79565b935050602062001ebf868287016200176b565b925050604084013567ffffffffffffffff81111562001ee35762001ee262001740565b5b62001ef18682870162001b79565b9150509250925092565b6000806040838503121562001f155762001f146200173b565b5b600062001f258582860162001904565b925050602062001f38858286016200176b565b9150509250929050565b600080fd5b600080fd5b600062001f6362001f5d8462001ae9565b62001aca565b90508281526020810184848401111562001f825762001f8162001a60565b5b62001f8f848285620017d0565b509392505050565b600082601f83011262001faf5762001fae62001a5b565b5b815162001fc184826020860162001f4c565b91505092915050565b60008151905062001fdb8162001751565b92915050565b60006060828403121562001ffa5762001ff962001f42565b5b62002006606062001aca565b9050600082015167ffffffffffffffff81111562002029576200202862001f47565b5b620020378482850162001f97565b60008301525060206200204d8482850162001fca565b602083015250604082015167ffffffffffffffff81111562002074576200207362001f47565b5b620020828482850162001f97565b60408301525092915050565b600060208284031215620020a757620020a66200173b565b5b600082015167ffffffffffffffff811115620020c857620020c762001740565b5b620020d68482850162001fe1565b91505092915050565b600082825260208201905092915050565b6000620020fd82620017b4565b620021098185620020df565b93506200211b818560208601620017d0565b6200212681620017fc565b840191505092915050565b600060408201905081810360008301526200214d8185620020f0565b90508181036020830152620021638184620020f0565b90509392505050565b600082825260208201905092915050565b7f4d7573742062652070726f706f736564206f776e657200000000000000000000600082015250565b6000620021b56016836200216c565b9150620021c2826200217d565b602082019050919050565b60006020820190508181036000830152620021e881620021a6565b9050919050565b60006040820190506200220660008301856200198d565b81810360208301526200221a8184620020f0565b90509392505050565b600060608201905081810360008301526200223f8186620020f0565b90506200225060208301856200198d565b8181036040830152620022648184620020f0565b9050949350505050565b7f536f75726365206d75737420626520746865206f7261636c65206f662074686560008201527f2072657175657374000000000000000000000000000000000000000000000000602082015250565b6000620022cc6028836200216c565b9150620022d9826200226e565b604082019050919050565b60006020820190508181036000830152620022ff81620022bd565b9050919050565b7f4e487b7100000000000000000000000000000000000000000000000000000000600052602160045260246000fd5b6004811062002349576200234862002306565b5b50565b60008190506200235c8262002335565b919050565b60006200236e826200234c565b9050919050565b620023808162002361565b82525050565b60006020820190506200239d600083018462002375565b92915050565b60048110620023b157600080fd5b50565b600081519050620023c581620023a3565b92915050565b600081519050620023dc8162001c31565b92915050565b600060c08284031215620023fb57620023fa62001f42565b5b6200240760c062001aca565b905060006200241984828501620023b4565b60008301525060206200242f84828501620023cb565b6020830152506040620024458482850162001fca565b60408301525060606200245b8482850162001fca565b6060830152506080620024718482850162001fca565b60808301525060a082015167ffffffffffffffff81111562002498576200249762001f47565b5b620024a68482850162001f97565b60a08301525092915050565b600060208284031215620024cb57620024ca6200173b565b5b600082015167ffffffffffffffff811115620024ec57620024eb62001740565b5b620024fa84828501620023e2565b91505092915050565b6200250e8162001cb1565b81146200251a57600080fd5b50565b6000815190506200252e8162002503565b92915050565b6000815190506200254581620018ea565b92915050565b600067ffffffffffffffff82111562002569576200256862001a65565b5b602082029050602081019050919050565b600067ffffffffffffffff82111562002598576200259762001a65565b5b602082029050602081019050919050565b600060a08284031215620025c257620025c162001f42565b5b620025ce60a062001aca565b90506000620025e084828501620023b4565b6000830152506020620025f68482850162001fca565b60208301525060406200260c8482850162001fca565b60408301525060606200262284828501620023cb565b606083015250608082015167ffffffffffffffff81111562002649576200264862001f47565b5b620026578482850162001f97565b60808301525092915050565b60006200267a62002674846200257a565b62001aca565b90508083825260208201905060208402830185811115620026a0576200269f62001d10565b5b835b81811015620026ee57805167ffffffffffffffff811115620026c957620026c862001a5b565b5b808601620026d88982620025a9565b85526020850194505050602081019050620026a2565b5050509392505050565b600082601f83011262002710576200270f62001a5b565b5b81516200272284826020860162002663565b91505092915050565b600067ffffffffffffffff82111562002749576200274862001a65565b5b602082029050602081019050919050565b600581106200276857600080fd5b50565b6000815190506200277c816200275a565b92915050565b600060c082840312156200279b576200279a62001f42565b5b620027a760c062001aca565b90506000620027b9848285016200276b565b6000830152506020620027cf848285016200251d565b6020830152506040620027e5848285016200251d565b6040830152506060620027fb8482850162001fca565b60608301525060806200281184828501620023cb565b60808301525060a082015167ffffffffffffffff81111562002838576200283762001f47565b5b620028468482850162001f97565b60a08301525092915050565b60006200286962002863846200272b565b62001aca565b905080838252602082019050602084028301858111156200288f576200288e62001d10565b5b835b81811015620028dd57805167ffffffffffffffff811115620028b857620028b762001a5b565b5b808601620028c7898262002782565b8552602085019450505060208101905062002891565b5050509392505050565b600082601f830112620028ff57620028fe62001a5b565b5b81516200291184826020860162002852565b91505092915050565b600060a0828403121562002933576200293262001f42565b5b6200293f60a062001aca565b9050600082015167ffffffffffffffff81111562002962576200296162001f47565b5b6200297084828501620026f8565b600083015250602082015167ffffffffffffffff81111562002997576200299662001f47565b5b620029a584828501620028e7565b6020830152506040620029bb8482850162002534565b604083015250606082015167ffffffffffffffff811115620029e257620029e162001f47565b5b620029f08482850162001f97565b606083015250608082015167ffffffffffffffff81111562002a175762002a1662001f47565b5b62002a258482850162001f97565b60808301525092915050565b600062002a4862002a42846200254b565b62001aca565b9050808382526020820190506020840283018581111562002a6e5762002a6d62001d10565b5b835b8181101562002abc57805167ffffffffffffffff81111562002a975762002a9662001a5b565b5b80860162002aa689826200291a565b8552602085019450505060208101905062002a70565b5050509392505050565b600082601f83011262002ade5762002add62001a5b565b5b815162002af084826020860162002a31565b91505092915050565b600060a0828403121562002b125762002b1162001f42565b5b62002b1e60a062001aca565b9050600062002b30848285016200251d565b600083015250602062002b46848285016200251d565b602083015250604062002b5c8482850162002534565b604083015250606082015167ffffffffffffffff81111562002b835762002b8262001f47565b5b62002b918482850162001f97565b606083015250608082015167ffffffffffffffff81111562002bb85762002bb762001f47565b5b62002bc68482850162002ac6565b60808301525092915050565b60006020828403121562002beb5762002bea6200173b565b5b600082015167ffffffffffffffff81111562002c0c5762002c0b62001740565b5b62002c1a8482850162002af9565b91505092915050565b62002c2e8162001cb1565b82525050565b62002c3f81620018e0565b82525050565b600081519050919050565b600082825260208201905092915050565b6000819050602082019050919050565b600081519050919050565b600082825260208201905092915050565b6000819050602082019050919050565b62002ca88162002361565b82525050565b62002cb9816200194d565b82525050565b600060a08301600083015162002cd9600086018262002c9d565b50602083015162002cee60208601826200184e565b50604083015162002d0360408601826200184e565b50606083015162002d18606086018262002cae565b506080830151848203608086015262002d3282826200180d565b9150508091505092915050565b600062002d4d838362002cbf565b905092915050565b6000602082019050919050565b600062002d6f8262002c71565b62002d7b818562002c7c565b93508360208202850162002d8f8562002c8d565b8060005b8581101562002dd1578484038952815162002daf858262002d3f565b945062002dbc8362002d55565b925060208a0199505060018101905062002d93565b50829750879550505050505092915050565b600081519050919050565b600082825260208201905092915050565b6000819050602082019050919050565b6005811062002e235762002e2262002306565b5b50565b600081905062002e368262002e0f565b919050565b600062002e488262002e26565b9050919050565b62002e5a8162002e3b565b82525050565b600060c08301600083015162002e7a600086018262002e4f565b50602083015162002e8f602086018262002c23565b50604083015162002ea4604086018262002c23565b50606083015162002eb960608601826200184e565b50608083015162002ece608086018262002cae565b5060a083015184820360a086015262002ee882826200180d565b9150508091505092915050565b600062002f03838362002e60565b905092915050565b6000602082019050919050565b600062002f258262002de3565b62002f31818562002dee565b93508360208202850162002f458562002dff565b8060005b8581101562002f87578484038952815162002f65858262002ef5565b945062002f728362002f0b565b925060208a0199505060018101905062002f49565b50829750879550505050505092915050565b600060a083016000830151848203600086015262002fb8828262002d62565b9150506020830151848203602086015262002fd4828262002f18565b915050604083015162002feb604086018262002c34565b50606083015184820360608601526200300582826200180d565b915050608083015184820360808601526200302182826200180d565b9150508091505092915050565b60006200303c838362002f99565b905092915050565b6000602082019050919050565b60006200305e8262002c45565b6200306a818562002c50565b9350836020820285016200307e8562002c61565b8060005b85811015620030c057848403895281516200309e85826200302e565b9450620030ab8362003044565b925060208a0199505060018101905062003082565b50829750879550505050505092915050565b600060a083016000830151620030ec600086018262002c23565b50602083015162003101602086018262002c23565b50604083015162003116604086018262002c34565b50606083015184820360608601526200313082826200180d565b915050608083015184820360808601526200314c828262003051565b9150508091505092915050565b600081519050919050565b600082825260208201905092915050565b6000819050602082019050919050565b600060c0830160008301516200319f600086018262002c9d565b506020830151620031b4602086018262002cae565b506040830151620031c960408601826200184e565b506060830151620031de60608601826200184e565b506080830151620031f360808601826200184e565b5060a083015184820360a08601526200320d82826200180d565b9150508091505092915050565b600062003228838362003185565b905092915050565b6000602082019050919050565b60006200324a8262003159565b62003256818562003164565b9350836020820285016200326a8562003175565b8060005b85811015620032ac57848403895281516200328a85826200321a565b9450620032978362003230565b925060208a019950506001810190506200326e565b50829750879550505050505092915050565b600081519050919050565b600082825260208201905092915050565b6000819050602082019050919050565b600060e08301600083015162003304600086018262002e4f565b50602083015162003319602086018262002c23565b5060408301516200332e604086018262002c23565b50606083015162003343606086018262002cae565b5060808301516200335860808601826200184e565b5060a08301516200336d60a08601826200184e565b5060c083015184820360c08601526200338782826200180d565b9150508091505092915050565b6000620033a28383620032ea565b905092915050565b6000602082019050919050565b6000620033c482620032be565b620033d08185620032c9565b935083602082028501620033e485620032da565b8060005b8581101562003426578484038952815162003404858262003394565b94506200341183620033aa565b925060208a01995050600181019050620033e8565b50829750879550505050505092915050565b600060608301600083015184820360008601526200345782826200180d565b91505060208301516200346e60208601826200184e565b50604083015184820360408601526200348882826200180d565b9150508091505092915050565b600060a083016000830151620034af600086018262002c23565b506020830151620034c4602086018262002c23565b5060408301518482036040860152620034de82826200323d565b91505060608301518482036060860152620034fa8282620033b7565b9150506080830151848203608086015262003516828262003438565b9150508091505092915050565b600060408201905081810360008301526200353f8185620030d2565b9050818103602083015262003555818462003495565b90509392505050565b600067ffffffffffffffff8211156200357c576200357b62001a65565b5b602082029050602081019050919050565b600060a08284031215620035a657620035a562001f42565b5b620035b260a062001aca565b90506000620035c484828501620023b4565b6000830152506020620035da8482850162001fca565b6020830152506040620035f084828501620023cb565b604083015250606082015167ffffffffffffffff81111562003617576200361662001f47565b5b620036258482850162001f97565b606083015250608082015167ffffffffffffffff8111156200364c576200364b62001f47565b5b6200365a8482850162001f97565b60808301525092915050565b60006200367d62003677846200355e565b62001aca565b90508083825260208201905060208402830185811115620036a357620036a262001d10565b5b835b81811015620036f157805167ffffffffffffffff811115620036cc57620036cb62001a5b565b5b808601620036db89826200358d565b85526020850194505050602081019050620036a5565b5050509392505050565b600082601f83011262003713576200371262001a5b565b5b81516200372584826020860162003666565b91505092915050565b600067ffffffffffffffff8211156200374c576200374b62001a65565b5b602082029050602081019050919050565b600060e0828403121562003776576200377562001f42565b5b6200378260e062001aca565b9050600062003794848285016200276b565b6000830152506020620037aa848285016200251d565b6020830152506040620037c0848285016200251d565b6040830152506060620037d684828501620023cb565b606083015250608082015167ffffffffffffffff811115620037fd57620037fc62001f47565b5b6200380b8482850162001f97565b60808301525060a06200382184828501620023cb565b60a08301525060c082015167ffffffffffffffff81111562003848576200384762001f47565b5b620038568482850162001f97565b60c08301525092915050565b60006200387962003873846200372e565b62001aca565b905080838252602082019050602084028301858111156200389f576200389e62001d10565b5b835b81811015620038ed57805167ffffffffffffffff811115620038c857620038c762001a5b565b5b808601620038d789826200375d565b85526020850194505050602081019050620038a1565b5050509392505050565b600082601f8301126200390f576200390e62001a5b565b5b81516200392184826020860162003862565b91505092915050565b600060c0828403121562003943576200394262001f42565b5b6200394f60c062001aca565b9050600062003961848285016200251d565b600083015250602062003977848285016200251d565b60208301525060406200398d8482850162002534565b604083015250606082015167ffffffffffffffff811115620039b457620039b362001f47565b5b620039c284828501620036fb565b606083015250608082015167ffffffffffffffff811115620039e957620039e862001f47565b5b620039f784828501620038f7565b60808301525060a082015167ffffffffffffffff81111562003a1e5762003a1d62001f47565b5b62003a2c8482850162001f97565b60a08301525092915050565b60006020828403121562003a515762003a506200173b565b5b600082015167ffffffffffffffff81111562003a725762003a7162001740565b5b62003a80848285016200392a565b91505092915050565b7f4e487b7100000000000000000000000000000000000000000000000000000000600052603260045260246000fd5b7f4e487b7100000000000000000000000000000000000000000000000000000000600052601160045260246000fd5b600062003af4826200194d565b91507fffffffffffffffffffffffffffffffffffffffffffffffffffffffffffffffff820362003b295762003b2862003ab8565b5b600182019050919050565b600060408201905062003b4b600083018562001957565b62003b5a60208301846200198d565b9392505050565b7f4f6e6c792063616c6c61626c65206279206f776e657200000000000000000000600082015250565b600062003b996016836200216c565b915062003ba68262003b61565b602082019050919050565b6000602082019050818103600083015262003bcc8162003b8a565b9050919050565b7f43616e6e6f74207472616e7366657220746f2073656c66000000000000000000600082015250565b600062003c0b6017836200216c565b915062003c188262003bd3565b602082019050919050565b6000602082019050818103600083015262003c3e8162003bfc565b9050919050565b600060c08301600083015162003c5f600086018262002c9d565b50602083015162003c74602086018262002cae565b50604083015162003c8960408601826200184e565b50606083015162003c9e60608601826200184e565b50608083015162003cb360808601826200184e565b5060a083015184820360a086015262003ccd82826200180d565b9150508091505092915050565b6000606082019050818103600083015262003cf6818662003c45565b9050818103602083015262003d0c81856200185f565b905062003d1d604083018462001cdd565b949350505050565b600067ffffffffffffffff82111562003d435762003d4262001a65565b5b602082029050602081019050919050565b600062003d6b62003d658462003d25565b62001aca565b9050808382526020820190506020840283018581111562003d915762003d9062001d10565b5b835b8181101562003ddf57805167ffffffffffffffff81111562003dba5762003db962001a5b565b5b80860162003dc98982620023e2565b8552602085019450505060208101905062003d93565b5050509392505050565b600082601f83011262003e015762003e0062001a5b565b5b815162003e1384826020860162003d54565b91505092915050565b600067ffffffffffffffff82111562003e3a5762003e3962001a65565b5b602082029050602081019050919050565b600060e0828403121562003e645762003e6362001f42565b5b62003e7060e062001aca565b9050600062003e82848285016200276b565b600083015250602062003e98848285016200251d565b602083015250604062003eae848285016200251d565b604083015250606062003ec484828501620023cb565b606083015250608062003eda8482850162001fca565b60808301525060a062003ef08482850162001fca565b60a08301525060c082015167ffffffffffffffff81111562003f175762003f1662001f47565b5b62003f258482850162001f97565b60c08301525092915050565b600062003f4862003f428462003e1c565b62001aca565b9050808382526020820190506020840283018581111562003f6e5762003f6d62001d10565b5b835b8181101562003fbc57805167ffffffffffffffff81111562003f975762003f9662001a5b565b5b80860162003fa6898262003e4b565b8552602085019450505060208101905062003f70565b5050509392505050565b600082601f83011262003fde5762003fdd62001a5b565b5b815162003ff084826020860162003f31565b91505092915050565b600060a0828403121562004012576200401162001f42565b5b6200401e60a062001aca565b9050600062004030848285016200251d565b600083015250602062004046848285016200251d565b602083015250604082015167ffffffffffffffff8111156200406d576200406c62001f47565b5b6200407b8482850162003de9565b604083015250606082015167ffffffffffffffff811115620040a257620040a162001f47565b5b620040b08482850162003fc6565b606083015250608082015167ffffffffffffffff811115620040d757620040d662001f47565b5b620040e58482850162001fe1565b60808301525092915050565b6000602082840312156200410a57620041096200173b565b5b600082015167ffffffffffffffff8111156200412b576200412a62001740565b5b620041398482850162003ff9565b9150509291505056fe608060405234801561001057600080fd5b5060405161057d38038061057d833981810160405281019061003291906100e7565b81600081905550806001806101000a81548160ff0219169083151502179055506000600160006101000a81548160ff0219169083151502179055505050610127565b600080fd5b6000819050919050565b61008c81610079565b811461009757600080fd5b50565b6000815190506100a981610083565b92915050565b60008115159050919050565b6100c4816100af565b81146100cf57600080fd5b50565b6000815190506100e1816100bb565b92915050565b600080604083850312156100fe576100fd610074565b5b600061010c8582860161009a565b925050602061011d858286016100d2565b9150509250929050565b610447806101366000396000f3fe6080604052600436106100435760003560e01c80630eee4f7e1461004c57806333194c0a146100635780637a539fac1461008e5780639f39f003146100b75761004a565b3661004a57005b005b34801561005857600080fd5b506100616100f4565b005b34801561006f57600080fd5b50610078610120565b60405161008591906101e7565b60405180910390f35b34801561009a57600080fd5b506100b560048036038101906100b0919061039b565b610126565b005b3480156100c357600080fd5b506100de60048036038101906100d991906103e4565b610140565b6040516100eb91906101e7565b60405180910390f35b600160009054906101000a900460ff1615600160006101000a81548160ff021916908315150217905550565b60005481565b806002908051906020019061013c929190610164565b5050565b6002818154811061015057600080fd5b906000526020600020016000915090505481565b8280548282559060005260206000209081019282156101a0579160200282015b8281111561019f578251825591602001919060010190610184565b5b5090506101ad91906101b1565b5090565b5b808211156101ca5760008160009055506001016101b2565b5090565b6000819050919050565b6101e1816101ce565b82525050565b60006020820190506101fc60008301846101d8565b92915050565b6000604051905090565b600080fd5b600080fd5b600080fd5b6000601f19601f8301169050919050565b7f4e487b7100000000000000000000000000000000000000000000000000000000600052604160045260246000fd5b6102648261021b565b810181811067ffffffffffffffff821117156102835761028261022c565b5b80604052505050565b6000610296610202565b90506102a2828261025b565b919050565b600067ffffffffffffffff8211156102c2576102c161022c565b5b602082029050602081019050919050565b600080fd5b6102e1816101ce565b81146102ec57600080fd5b50565b6000813590506102fe816102d8565b92915050565b6000610317610312846102a7565b61028c565b9050808382526020820190506020840283018581111561033a576103396102d3565b5b835b81811015610363578061034f88826102ef565b84526020840193505060208101905061033c565b5050509392505050565b600082601f83011261038257610381610216565b5b8135610392848260208601610304565b91505092915050565b6000602082840312156103b1576103b061020c565b5b600082013567ffffffffffffffff8111156103cf576103ce610211565b5b6103db8482850161036d565b91505092915050565b6000602082840312156103fa576103f961020c565b5b6000610408848285016102ef565b9150509291505056fea26469706673582212203e59fa8674d8230839035f330417637e90c0ac6bf29a185879f69cf5b9c4bc4564736f6c63430008120033a2646970667358221220cc3f572d1e61a0948d0fa5746c18b96ef5dcace1c7063e115c43834cb0a66ced64736f6c63430008120033",
  "linkReferences": {},
  "deployedLinkReferences": {}
}