{"contracts/Idw3Factory.sol":{"Idw3Factory":{"abi":[{"inputs":[{"internalType":"string","name":"_vaultId","type":"string"},{"internalType":"string","name":"_typeOfId","type":"string"}],"name":"createIdw3","outputs":[],"stateMutability":"payable","type":"function"},{"inputs":[{"internalType":"uint256","name":"","type":"uint256"}],"name":"deployedIdw3s","outputs":[{"internalType":"address","name":"","type":"address"}],"stateMutability":"view","type":"function"},{"inputs":[],"name":"evaluateKYCAndVault","outputs":[{"internalType":"bool","name":"","type":"bool"}],"stateMutability":"view","type":"function"},{"inputs":[{"internalType":"address","name":"","type":"address"},{"internalType":"uint256","name":"","type":"uint256"}],"name":"idw3sByOwner","outputs":[{"internalType":"address","name":"","type":"address"}],"stateMutability":"view","type":"function"}],"evm":{"bytecode":{"linkReferences":{},"object":"608060405234801561001057600080fd5b50610fda806100206000396000f3fe608060405260043610620000445760003560e01c80636b972e8d146200004957806375dbf2e514620000695780639b62893114620000ad578063c853afba14620000f1575b600080fd5b62000067600480360381019062000061919062000484565b62000121565b005b3480156200007657600080fd5b506200009560048036038101906200008f919062000544565b62000268565b604051620000a49190620005bb565b60405180910390f35b348015620000ba57600080fd5b50620000d96004803603810190620000d3919062000609565b620002a8565b604051620000e89190620005bb565b60405180910390f35b348015620000fe57600080fd5b5062000109620002f7565b6040516200011891906200066d565b60405180910390f35b60008282604051620001339062000300565b6200014092919062000713565b604051809103906000f0801580156200015d573d6000803e3d6000fd5b5090506000819080600181540180825580915050600190039060005260206000200160009091909190916101000a81548173ffffffffffffffffffffffffffffffffffffffff021916908373ffffffffffffffffffffffffffffffffffffffff160217905550600160003373ffffffffffffffffffffffffffffffffffffffff1673ffffffffffffffffffffffffffffffffffffffff168152602001908152602001600020819080600181540180825580915050600190039060005260206000200160009091909190916101000a81548173ffffffffffffffffffffffffffffffffffffffff021916908373ffffffffffffffffffffffffffffffffffffffff160217905550505050565b600081815481106200027957600080fd5b906000526020600020016000915054906101000a900473ffffffffffffffffffffffffffffffffffffffff1681565b60016020528160005260406000208181548110620002c557600080fd5b906000526020600020016000915091509054906101000a900473ffffffffffffffffffffffffffffffffffffffff1681565b60006001905090565b610856806200074f83390190565b6000604051905090565b600080fd5b600080fd5b600080fd5b600080fd5b6000601f19601f8301169050919050565b7f4e487b7100000000000000000000000000000000000000000000000000000000600052604160045260246000fd5b62000377826200032c565b810181811067ffffffffffffffff821117156200039957620003986200033d565b5b80604052505050565b6000620003ae6200030e565b9050620003bc82826200036c565b919050565b600067ffffffffffffffff821115620003df57620003de6200033d565b5b620003ea826200032c565b9050602081019050919050565b82818337600083830152505050565b60006200041d6200041784620003c1565b620003a2565b9050828152602081018484840111156200043c576200043b62000327565b5b62000449848285620003f7565b509392505050565b600082601f83011262000469576200046862000322565b5b81356200047b84826020860162000406565b91505092915050565b600080604083850312156200049e576200049d62000318565b5b600083013567ffffffffffffffff811115620004bf57620004be6200031d565b5b620004cd8582860162000451565b925050602083013567ffffffffffffffff811115620004f157620004f06200031d565b5b620004ff8582860162000451565b9150509250929050565b6000819050919050565b6200051e8162000509565b81146200052a57600080fd5b50565b6000813590506200053e8162000513565b92915050565b6000602082840312156200055d576200055c62000318565b5b60006200056d848285016200052d565b91505092915050565b600073ffffffffffffffffffffffffffffffffffffffff82169050919050565b6000620005a38262000576565b9050919050565b620005b58162000596565b82525050565b6000602082019050620005d26000830184620005aa565b92915050565b620005e38162000596565b8114620005ef57600080fd5b50565b6000813590506200060381620005d8565b92915050565b6000806040838503121562000623576200062262000318565b5b60006200063385828601620005f2565b925050602062000646858286016200052d565b9150509250929050565b60008115159050919050565b620006678162000650565b82525050565b60006020820190506200068460008301846200065c565b92915050565b600081519050919050565b600082825260208201905092915050565b60005b83811015620006c6578082015181840152602081019050620006a9565b60008484015250505050565b6000620006df826200068a565b620006eb818562000695565b9350620006fd818560208601620006a6565b62000708816200032c565b840191505092915050565b600060408201905081810360008301526200072f8185620006d2565b90508181036020830152620007458184620006d2565b9050939250505056fe60806040523480156200001157600080fd5b506040516200085638038062000856833981810160405281019062000037919062000211565b8160009081620000489190620004e1565b5080600290816200005a9190620004e1565b506000600160006101000a81548160ff0219169083151502179055505050620005c8565b6000604051905090565b600080fd5b600080fd5b600080fd5b600080fd5b6000601f19601f8301169050919050565b7f4e487b7100000000000000000000000000000000000000000000000000000000600052604160045260246000fd5b620000e7826200009c565b810181811067ffffffffffffffff82111715620001095762000108620000ad565b5b80604052505050565b60006200011e6200007e565b90506200012c8282620000dc565b919050565b600067ffffffffffffffff8211156200014f576200014e620000ad565b5b6200015a826200009c565b9050602081019050919050565b60005b83811015620001875780820151818401526020810190506200016a565b60008484015250505050565b6000620001aa620001a48462000131565b62000112565b905082815260208101848484011115620001c957620001c862000097565b5b620001d684828562000167565b509392505050565b600082601f830112620001f657620001f562000092565b5b81516200020884826020860162000193565b91505092915050565b600080604083850312156200022b576200022a62000088565b5b600083015167ffffffffffffffff8111156200024c576200024b6200008d565b5b6200025a85828601620001de565b925050602083015167ffffffffffffffff8111156200027e576200027d6200008d565b5b6200028c85828601620001de565b9150509250929050565b600081519050919050565b7f4e487b7100000000000000000000000000000000000000000000000000000000600052602260045260246000fd5b60006002820490506001821680620002e957607f821691505b602082108103620002ff57620002fe620002a1565b5b50919050565b60008190508160005260206000209050919050565b60006020601f8301049050919050565b600082821b905092915050565b600060088302620003697fffffffffffffffffffffffffffffffffffffffffffffffffffffffffffffffff826200032a565b6200037586836200032a565b95508019841693508086168417925050509392505050565b6000819050919050565b6000819050919050565b6000620003c2620003bc620003b6846200038d565b62000397565b6200038d565b9050919050565b6000819050919050565b620003de83620003a1565b620003f6620003ed82620003c9565b84845462000337565b825550505050565b600090565b6200040d620003fe565b6200041a818484620003d3565b505050565b5b8181101562000442576200043660008262000403565b60018101905062000420565b5050565b601f82111562000491576200045b8162000305565b62000466846200031a565b8101602085101562000476578190505b6200048e62000485856200031a565b8301826200041f565b50505b505050565b600082821c905092915050565b6000620004b66000198460080262000496565b1980831691505092915050565b6000620004d18383620004a3565b9150826002028217905092915050565b620004ec8262000296565b67ffffffffffffffff811115620005085762000507620000ad565b5b620005148254620002d0565b6200052182828562000446565b600060209050601f83116001811462000559576000841562000544578287015190505b620005508582620004c3565b865550620005c0565b601f198416620005698662000305565b60005b8281101562000593578489015182556001820191506020850194506020810190506200056c565b86831015620005b35784890151620005af601f891682620004a3565b8355505b6001600288020188555050505b505050505050565b61027e80620005d86000396000f3fe60806040526004361061002d5760003560e01c80630eee4f7e146100365780634e2285f11461004d57610034565b3661003457005b005b34801561004257600080fd5b5061004b610078565b005b34801561005957600080fd5b506100626100a4565b60405161006f91906101c6565b60405180910390f35b600160009054906101000a900460ff1615600160006101000a81548160ff021916908315150217905550565b6060600080546100b390610217565b80601f01602080910402602001604051908101604052809291908181526020018280546100df90610217565b801561012c5780601f106101015761010080835404028352916020019161012c565b820191906000526020600020905b81548152906001019060200180831161010f57829003601f168201915b5050505050905090565b600081519050919050565b600082825260208201905092915050565b60005b83811015610170578082015181840152602081019050610155565b60008484015250505050565b6000601f19601f8301169050919050565b600061019882610136565b6101a28185610141565b93506101b2818560208601610152565b6101bb8161017c565b840191505092915050565b600060208201905081810360008301526101e0818461018d565b905092915050565b7f4e487b7100000000000000000000000000000000000000000000000000000000600052602260045260246000fd5b6000600282049050600182168061022f57607f821691505b602082108103610242576102416101e8565b5b5091905056fea2646970667358221220c9063b3f7f288dac2f3696a8e9805e8b725970f62184d87bd8813688885d878864736f6c63430008120033a26469706673582212200b5f2775e45ba993279bcf29f395cf7520582bc8f4a9021b2f80e6514813809d64736f6c63430008120033","opcodes":"PUSH1 0x80 PUSH1 0x40 MSTORE CALLVALUE DUP1 ISZERO PUSH2 0x10 JUMPI PUSH1 0x0 DUP1 REVERT JUMPDEST POP PUSH2 0xFDA DUP1 PUSH2 0x20 PUSH1 0x0 CODECOPY PUSH1 0x0 RETURN INVALID PUSH1 0x80 PUSH1 0x40 MSTORE PUSH1 0x4 CALLDATASIZE LT PUSH3 0x44 JUMPI PUSH1 0x0 CALLDATALOAD PUSH1 0xE0 SHR DUP1 PUSH4 0x6B972E8D EQ PUSH3 0x49 JUMPI DUP1 PUSH4 0x75DBF2E5 EQ PUSH3 0x69 JUMPI DUP1 PUSH4 0x9B628931 EQ PUSH3 0xAD JUMPI DUP1 PUSH4 0xC853AFBA EQ PUSH3 0xF1 JUMPI JUMPDEST PUSH1 0x0 DUP1 REVERT JUMPDEST PUSH3 0x67 PUSH1 0x4 DUP1 CALLDATASIZE SUB DUP2 ADD SWAP1 PUSH3 0x61 SWAP2 SWAP1 PUSH3 0x484 JUMP JUMPDEST PUSH3 0x121 JUMP JUMPDEST STOP JUMPDEST CALLVALUE DUP1 ISZERO PUSH3 0x76 JUMPI PUSH1 0x0 DUP1 REVERT JUMPDEST POP PUSH3 0x95 PUSH1 0x4 DUP1 CALLDATASIZE SUB DUP2 ADD SWAP1 PUSH3 0x8F SWAP2 SWAP1 PUSH3 0x544 JUMP JUMPDEST PUSH3 0x268 JUMP JUMPDEST PUSH1 0x40 MLOAD PUSH3 0xA4 SWAP2 SWAP1 PUSH3 0x5BB JUMP JUMPDEST PUSH1 0x40 MLOAD DUP1 SWAP2 SUB SWAP1 RETURN JUMPDEST CALLVALUE DUP1 ISZERO PUSH3 0xBA JUMPI PUSH1 0x0 DUP1 REVERT JUMPDEST POP PUSH3 0xD9 PUSH1 0x4 DUP1 CALLDATASIZE SUB DUP2 ADD SWAP1 PUSH3 0xD3 SWAP2 SWAP1 PUSH3 0x609 JUMP JUMPDEST PUSH3 0x2A8 JUMP JUMPDEST PUSH1 0x40 MLOAD PUSH3 0xE8 SWAP2 SWAP1 PUSH3 0x5BB JUMP JUMPDEST PUSH1 0x40 MLOAD DUP1 SWAP2 SUB SWAP1 RETURN JUMPDEST CALLVALUE DUP1 ISZERO PUSH3 0xFE JUMPI PUSH1 0x0 DUP1 REVERT JUMPDEST POP PUSH3 0x109 PUSH3 0x2F7 JUMP JUMPDEST PUSH1 0x40 MLOAD PUSH3 0x118 SWAP2 SWAP1 PUSH3 0x66D JUMP JUMPDEST PUSH1 0x40 MLOAD DUP1 SWAP2 SUB SWAP1 RETURN JUMPDEST PUSH1 0x0 DUP3 DUP3 PUSH1 0x40 MLOAD PUSH3 0x133 SWAP1 PUSH3 0x300 JUMP JUMPDEST PUSH3 0x140 SWAP3 SWAP2 SWAP1 PUSH3 0x713 JUMP JUMPDEST PUSH1 0x40 MLOAD DUP1 SWAP2 SUB SWAP1 PUSH1 0x0 CREATE DUP1 ISZERO DUP1 ISZERO PUSH3 0x15D JUMPI RETURNDATASIZE PUSH1 0x0 DUP1 RETURNDATACOPY RETURNDATASIZE PUSH1 0x0 REVERT JUMPDEST POP SWAP1 POP PUSH1 0x0 DUP2 SWAP1 DUP1 PUSH1 0x1 DUP2 SLOAD ADD DUP1 DUP3 SSTORE DUP1 SWAP2 POP POP PUSH1 0x1 SWAP1 SUB SWAP1 PUSH1 0x0 MSTORE PUSH1 0x20 PUSH1 0x0 KECCAK256 ADD PUSH1 0x0 SWAP1 SWAP2 SWAP1 SWAP2 SWAP1 SWAP2 PUSH2 0x100 EXP DUP2 SLOAD DUP2 PUSH20 0xFFFFFFFFFFFFFFFFFFFFFFFFFFFFFFFFFFFFFFFF MUL NOT AND SWAP1 DUP4 PUSH20 0xFFFFFFFFFFFFFFFFFFFFFFFFFFFFFFFFFFFFFFFF AND MUL OR SWAP1 SSTORE POP PUSH1 0x1 PUSH1 0x0 CALLER PUSH20 0xFFFFFFFFFFFFFFFFFFFFFFFFFFFFFFFFFFFFFFFF AND PUSH20 0xFFFFFFFFFFFFFFFFFFFFFFFFFFFFFFFFFFFFFFFF AND DUP2 MSTORE PUSH1 0x20 ADD SWAP1 DUP2 MSTORE PUSH1 0x20 ADD PUSH1 0x0 KECCAK256 DUP2 SWAP1 DUP1 PUSH1 0x1 DUP2 SLOAD ADD DUP1 DUP3 SSTORE DUP1 SWAP2 POP POP PUSH1 0x1 SWAP1 SUB SWAP1 PUSH1 0x0 MSTORE PUSH1 0x20 PUSH1 0x0 KECCAK256 ADD PUSH1 0x0 SWAP1 SWAP2 SWAP1 SWAP2 SWAP1 SWAP2 PUSH2 0x100 EXP DUP2 SLOAD DUP2 PUSH20 0xFFFFFFFFFFFFFFFFFFFFFFFFFFFFFFFFFFFFFFFF MUL NOT AND SWAP1 DUP4 PUSH20 0xFFFFFFFFFFFFFFFFFFFFFFFFFFFFFFFFFFFFFFFF AND MUL OR SWAP1 SSTORE POP POP POP POP JUMP JUMPDEST PUSH1 0x0 DUP2 DUP2 SLOAD DUP2 LT PUSH3 0x279 JUMPI PUSH1 0x0 DUP1 REVERT JUMPDEST SWAP1 PUSH1 0x0 MSTORE PUSH1 0x20 PUSH1 0x0 KECCAK256 ADD PUSH1 0x0 SWAP2 POP SLOAD SWAP1 PUSH2 0x100 EXP SWAP1 DIV PUSH20 0xFFFFFFFFFFFFFFFFFFFFFFFFFFFFFFFFFFFFFFFF AND DUP2 JUMP JUMPDEST PUSH1 0x1 PUSH1 0x20 MSTORE DUP2 PUSH1 0x0 MSTORE PUSH1 0x40 PUSH1 0x0 KECCAK256 DUP2 DUP2 SLOAD DUP2 LT PUSH3 0x2C5 JUMPI PUSH1 0x0 DUP1 REVERT JUMPDEST SWAP1 PUSH1 0x0 MSTORE PUSH1 0x20 PUSH1 0x0 KECCAK256 ADD PUSH1 0x0 SWAP2 POP SWAP2 POP SWAP1 SLOAD SWAP1 PUSH2 0x100 EXP SWAP1 DIV PUSH20 0xFFFFFFFFFFFFFFFFFFFFFFFFFFFFFFFFFFFFFFFF AND DUP2 JUMP JUMPDEST PUSH1 0x0 PUSH1 0x1 SWAP1 POP SWAP1 JUMP JUMPDEST PUSH2 0x856 DUP1 PUSH3 0x74F DUP4 CODECOPY ADD SWAP1 JUMP JUMPDEST PUSH1 0x0 PUSH1 0x40 MLOAD SWAP1 POP SWAP1 JUMP JUMPDEST PUSH1 0x0 DUP1 REVERT JUMPDEST PUSH1 0x0 DUP1 REVERT JUMPDEST PUSH1 0x0 DUP1 REVERT JUMPDEST PUSH1 0x0 DUP1 REVERT JUMPDEST PUSH1 0x0 PUSH1 0x1F NOT PUSH1 0x1F DUP4 ADD AND SWAP1 POP SWAP2 SWAP1 POP JUMP JUMPDEST PUSH32 0x4E487B7100000000000000000000000000000000000000000000000000000000 PUSH1 0x0 MSTORE PUSH1 0x41 PUSH1 0x4 MSTORE PUSH1 0x24 PUSH1 0x0 REVERT JUMPDEST PUSH3 0x377 DUP3 PUSH3 0x32C JUMP JUMPDEST DUP2 ADD DUP2 DUP2 LT PUSH8 0xFFFFFFFFFFFFFFFF DUP3 GT OR ISZERO PUSH3 0x399 JUMPI PUSH3 0x398 PUSH3 0x33D JUMP JUMPDEST JUMPDEST DUP1 PUSH1 0x40 MSTORE POP POP POP JUMP JUMPDEST PUSH1 0x0 PUSH3 0x3AE PUSH3 0x30E JUMP JUMPDEST SWAP1 POP PUSH3 0x3BC DUP3 DUP3 PUSH3 0x36C JUMP JUMPDEST SWAP2 SWAP1 POP JUMP JUMPDEST PUSH1 0x0 PUSH8 0xFFFFFFFFFFFFFFFF DUP3 GT ISZERO PUSH3 0x3DF JUMPI PUSH3 0x3DE PUSH3 0x33D JUMP JUMPDEST JUMPDEST PUSH3 0x3EA DUP3 PUSH3 0x32C JUMP JUMPDEST SWAP1 POP PUSH1 0x20 DUP2 ADD SWAP1 POP SWAP2 SWAP1 POP JUMP JUMPDEST DUP3 DUP2 DUP4 CALLDATACOPY PUSH1 0x0 DUP4 DUP4 ADD MSTORE POP POP POP JUMP JUMPDEST PUSH1 0x0 PUSH3 0x41D PUSH3 0x417 DUP5 PUSH3 0x3C1 JUMP JUMPDEST PUSH3 0x3A2 JUMP JUMPDEST SWAP1 POP DUP3 DUP2 MSTORE PUSH1 0x20 DUP2 ADD DUP5 DUP5 DUP5 ADD GT ISZERO PUSH3 0x43C JUMPI PUSH3 0x43B PUSH3 0x327 JUMP JUMPDEST JUMPDEST PUSH3 0x449 DUP5 DUP3 DUP6 PUSH3 0x3F7 JUMP JUMPDEST POP SWAP4 SWAP3 POP POP POP JUMP JUMPDEST PUSH1 0x0 DUP3 PUSH1 0x1F DUP4 ADD SLT PUSH3 0x469 JUMPI PUSH3 0x468 PUSH3 0x322 JUMP JUMPDEST JUMPDEST DUP2 CALLDATALOAD PUSH3 0x47B DUP5 DUP3 PUSH1 0x20 DUP7 ADD PUSH3 0x406 JUMP JUMPDEST SWAP2 POP POP SWAP3 SWAP2 POP POP JUMP JUMPDEST PUSH1 0x0 DUP1 PUSH1 0x40 DUP4 DUP6 SUB SLT ISZERO PUSH3 0x49E JUMPI PUSH3 0x49D PUSH3 0x318 JUMP JUMPDEST JUMPDEST PUSH1 0x0 DUP4 ADD CALLDATALOAD PUSH8 0xFFFFFFFFFFFFFFFF DUP2 GT ISZERO PUSH3 0x4BF JUMPI PUSH3 0x4BE PUSH3 0x31D JUMP JUMPDEST JUMPDEST PUSH3 0x4CD DUP6 DUP3 DUP7 ADD PUSH3 0x451 JUMP JUMPDEST SWAP3 POP POP PUSH1 0x20 DUP4 ADD CALLDATALOAD PUSH8 0xFFFFFFFFFFFFFFFF DUP2 GT ISZERO PUSH3 0x4F1 JUMPI PUSH3 0x4F0 PUSH3 0x31D JUMP JUMPDEST JUMPDEST PUSH3 0x4FF DUP6 DUP3 DUP7 ADD PUSH3 0x451 JUMP JUMPDEST SWAP2 POP POP SWAP3 POP SWAP3 SWAP1 POP JUMP JUMPDEST PUSH1 0x0 DUP2 SWAP1 POP SWAP2 SWAP1 POP JUMP JUMPDEST PUSH3 0x51E DUP2 PUSH3 0x509 JUMP JUMPDEST DUP2 EQ PUSH3 0x52A JUMPI PUSH1 0x0 DUP1 REVERT JUMPDEST POP JUMP JUMPDEST PUSH1 0x0 DUP2 CALLDATALOAD SWAP1 POP PUSH3 0x53E DUP2 PUSH3 0x513 JUMP JUMPDEST SWAP3 SWAP2 POP POP JUMP JUMPDEST PUSH1 0x0 PUSH1 0x20 DUP3 DUP5 SUB SLT ISZERO PUSH3 0x55D JUMPI PUSH3 0x55C PUSH3 0x318 JUMP JUMPDEST JUMPDEST PUSH1 0x0 PUSH3 0x56D DUP5 DUP3 DUP6 ADD PUSH3 0x52D JUMP JUMPDEST SWAP2 POP POP SWAP3 SWAP2 POP POP JUMP JUMPDEST PUSH1 0x0 PUSH20 0xFFFFFFFFFFFFFFFFFFFFFFFFFFFFFFFFFFFFFFFF DUP3 AND SWAP1 POP SWAP2 SWAP1 POP JUMP JUMPDEST PUSH1 0x0 PUSH3 0x5A3 DUP3 PUSH3 0x576 JUMP JUMPDEST SWAP1 POP SWAP2 SWAP1 POP JUMP JUMPDEST PUSH3 0x5B5 DUP2 PUSH3 0x596 JUMP JUMPDEST DUP3 MSTORE POP POP JUMP JUMPDEST PUSH1 0x0 PUSH1 0x20 DUP3 ADD SWAP1 POP PUSH3 0x5D2 PUSH1 0x0 DUP4 ADD DUP5 PUSH3 0x5AA JUMP JUMPDEST SWAP3 SWAP2 POP POP JUMP JUMPDEST PUSH3 0x5E3 DUP2 PUSH3 0x596 JUMP JUMPDEST DUP2 EQ PUSH3 0x5EF JUMPI PUSH1 0x0 DUP1 REVERT JUMPDEST POP JUMP JUMPDEST PUSH1 0x0 DUP2 CALLDATALOAD SWAP1 POP PUSH3 0x603 DUP2 PUSH3 0x5D8 JUMP JUMPDEST SWAP3 SWAP2 POP POP JUMP JUMPDEST PUSH1 0x0 DUP1 PUSH1 0x40 DUP4 DUP6 SUB SLT ISZERO PUSH3 0x623 JUMPI PUSH3 0x622 PUSH3 0x318 JUMP JUMPDEST JUMPDEST PUSH1 0x0 PUSH3 0x633 DUP6 DUP3 DUP7 ADD PUSH3 0x5F2 JUMP JUMPDEST SWAP3 POP POP PUSH1 0x20 PUSH3 0x646 DUP6 DUP3 DUP7 ADD PUSH3 0x52D JUMP JUMPDEST SWAP2 POP POP SWAP3 POP SWAP3 SWAP1 POP JUMP JUMPDEST PUSH1 0x0 DUP2 ISZERO ISZERO SWAP1 POP SWAP2 SWAP1 POP JUMP JUMPDEST PUSH3 0x667 DUP2 PUSH3 0x650 JUMP JUMPDEST DUP3 MSTORE POP POP JUMP JUMPDEST PUSH1 0x0 PUSH1 0x20 DUP3 ADD SWAP1 POP PUSH3 0x684 PUSH1 0x0 DUP4 ADD DUP5 PUSH3 0x65C JUMP JUMPDEST SWAP3 SWAP2 POP POP JUMP JUMPDEST PUSH1 0x0 DUP2 MLOAD SWAP1 POP SWAP2 SWAP1 POP JUMP JUMPDEST PUSH1 0x0 DUP3 DUP3 MSTORE PUSH1 0x20 DUP3 ADD SWAP1 POP SWAP3 SWAP2 POP POP JUMP JUMPDEST PUSH1 0x0 JUMPDEST DUP4 DUP2 LT ISZERO PUSH3 0x6C6 JUMPI DUP1 DUP3 ADD MLOAD DUP2 DUP5 ADD MSTORE PUSH1 0x20 DUP2 ADD SWAP1 POP PUSH3 0x6A9 JUMP JUMPDEST PUSH1 0x0 DUP5 DUP5 ADD MSTORE POP POP POP POP JUMP JUMPDEST PUSH1 0x0 PUSH3 0x6DF DUP3 PUSH3 0x68A JUMP JUMPDEST PUSH3 0x6EB DUP2 DUP6 PUSH3 0x695 JUMP JUMPDEST SWAP4 POP PUSH3 0x6FD DUP2 DUP6 PUSH1 0x20 DUP7 ADD PUSH3 0x6A6 JUMP JUMPDEST PUSH3 0x708 DUP2 PUSH3 0x32C JUMP JUMPDEST DUP5 ADD SWAP2 POP POP SWAP3 SWAP2 POP POP JUMP JUMPDEST PUSH1 0x0 PUSH1 0x40 DUP3 ADD SWAP1 POP DUP2 DUP2 SUB PUSH1 0x0 DUP4 ADD MSTORE PUSH3 0x72F DUP2 DUP6 PUSH3 0x6D2 JUMP JUMPDEST SWAP1 POP DUP2 DUP2 SUB PUSH1 0x20 DUP4 ADD MSTORE PUSH3 0x745 DUP2 DUP5 PUSH3 0x6D2 JUMP JUMPDEST SWAP1 POP SWAP4 SWAP3 POP POP POP JUMP INVALID PUSH1 0x80 PUSH1 0x40 MSTORE CALLVALUE DUP1 ISZERO PUSH3 0x11 JUMPI PUSH1 0x0 DUP1 REVERT JUMPDEST POP PUSH1 0x40 MLOAD PUSH3 0x856 CODESIZE SUB DUP1 PUSH3 0x856 DUP4 CODECOPY DUP2 DUP2 ADD PUSH1 0x40 MSTORE DUP2 ADD SWAP1 PUSH3 0x37 SWAP2 SWAP1 PUSH3 0x211 JUMP JUMPDEST DUP2 PUSH1 0x0 SWAP1 DUP2 PUSH3 0x48 SWAP2 SWAP1 PUSH3 0x4E1 JUMP JUMPDEST POP DUP1 PUSH1 0x2 SWAP1 DUP2 PUSH3 0x5A SWAP2 SWAP1 PUSH3 0x4E1 JUMP JUMPDEST POP PUSH1 0x0 PUSH1 0x1 PUSH1 0x0 PUSH2 0x100 EXP DUP2 SLOAD DUP2 PUSH1 0xFF MUL NOT AND SWAP1 DUP4 ISZERO ISZERO MUL OR SWAP1 SSTORE POP POP POP PUSH3 0x5C8 JUMP JUMPDEST PUSH1 0x0 PUSH1 0x40 MLOAD SWAP1 POP SWAP1 JUMP JUMPDEST PUSH1 0x0 DUP1 REVERT JUMPDEST PUSH1 0x0 DUP1 REVERT JUMPDEST PUSH1 0x0 DUP1 REVERT JUMPDEST PUSH1 0x0 DUP1 REVERT JUMPDEST PUSH1 0x0 PUSH1 0x1F NOT PUSH1 0x1F DUP4 ADD AND SWAP1 POP SWAP2 SWAP1 POP JUMP JUMPDEST PUSH32 0x4E487B7100000000000000000000000000000000000000000000000000000000 PUSH1 0x0 MSTORE PUSH1 0x41 PUSH1 0x4 MSTORE PUSH1 0x24 PUSH1 0x0 REVERT JUMPDEST PUSH3 0xE7 DUP3 PUSH3 0x9C JUMP JUMPDEST DUP2 ADD DUP2 DUP2 LT PUSH8 0xFFFFFFFFFFFFFFFF DUP3 GT OR ISZERO PUSH3 0x109 JUMPI PUSH3 0x108 PUSH3 0xAD JUMP JUMPDEST JUMPDEST DUP1 PUSH1 0x40 MSTORE POP POP POP JUMP JUMPDEST PUSH1 0x0 PUSH3 0x11E PUSH3 0x7E JUMP JUMPDEST SWAP1 POP PUSH3 0x12C DUP3 DUP3 PUSH3 0xDC JUMP JUMPDEST SWAP2 SWAP1 POP JUMP JUMPDEST PUSH1 0x0 PUSH8 0xFFFFFFFFFFFFFFFF DUP3 GT ISZERO PUSH3 0x14F JUMPI PUSH3 0x14E PUSH3 0xAD JUMP JUMPDEST JUMPDEST PUSH3 0x15A DUP3 PUSH3 0x9C JUMP JUMPDEST SWAP1 POP PUSH1 0x20 DUP2 ADD SWAP1 POP SWAP2 SWAP1 POP JUMP JUMPDEST PUSH1 0x0 JUMPDEST DUP4 DUP2 LT ISZERO PUSH3 0x187 JUMPI DUP1 DUP3 ADD MLOAD DUP2 DUP5 ADD MSTORE PUSH1 0x20 DUP2 ADD SWAP1 POP PUSH3 0x16A JUMP JUMPDEST PUSH1 0x0 DUP5 DUP5 ADD MSTORE POP POP POP POP JUMP JUMPDEST PUSH1 0x0 PUSH3 0x1AA PUSH3 0x1A4 DUP5 PUSH3 0x131 JUMP JUMPDEST PUSH3 0x112 JUMP JUMPDEST SWAP1 POP DUP3 DUP2 MSTORE PUSH1 0x20 DUP2 ADD DUP5 DUP5 DUP5 ADD GT ISZERO PUSH3 0x1C9 JUMPI PUSH3 0x1C8 PUSH3 0x97 JUMP JUMPDEST JUMPDEST PUSH3 0x1D6 DUP5 DUP3 DUP6 PUSH3 0x167 JUMP JUMPDEST POP SWAP4 SWAP3 POP POP POP JUMP JUMPDEST PUSH1 0x0 DUP3 PUSH1 0x1F DUP4 ADD SLT PUSH3 0x1F6 JUMPI PUSH3 0x1F5 PUSH3 0x92 JUMP JUMPDEST JUMPDEST DUP2 MLOAD PUSH3 0x208 DUP5 DUP3 PUSH1 0x20 DUP7 ADD PUSH3 0x193 JUMP JUMPDEST SWAP2 POP POP SWAP3 SWAP2 POP POP JUMP JUMPDEST PUSH1 0x0 DUP1 PUSH1 0x40 DUP4 DUP6 SUB SLT ISZERO PUSH3 0x22B JUMPI PUSH3 0x22A PUSH3 0x88 JUMP JUMPDEST JUMPDEST PUSH1 0x0 DUP4 ADD MLOAD PUSH8 0xFFFFFFFFFFFFFFFF DUP2 GT ISZERO PUSH3 0x24C JUMPI PUSH3 0x24B PUSH3 0x8D JUMP JUMPDEST JUMPDEST PUSH3 0x25A DUP6 DUP3 DUP7 ADD PUSH3 0x1DE JUMP JUMPDEST SWAP3 POP POP PUSH1 0x20 DUP4 ADD MLOAD PUSH8 0xFFFFFFFFFFFFFFFF DUP2 GT ISZERO PUSH3 0x27E JUMPI PUSH3 0x27D PUSH3 0x8D JUMP JUMPDEST JUMPDEST PUSH3 0x28C DUP6 DUP3 DUP7 ADD PUSH3 0x1DE JUMP JUMPDEST SWAP2 POP POP SWAP3 POP SWAP3 SWAP1 POP JUMP JUMPDEST PUSH1 0x0 DUP2 MLOAD SWAP1 POP SWAP2 SWAP1 POP JUMP JUMPDEST PUSH32 0x4E487B7100000000000000000000000000000000000000000000000000000000 PUSH1 0x0 MSTORE PUSH1 0x22 PUSH1 0x4 MSTORE PUSH1 0x24 PUSH1 0x0 REVERT JUMPDEST PUSH1 0x0 PUSH1 0x2 DUP3 DIV SWAP1 POP PUSH1 0x1 DUP3 AND DUP1 PUSH3 0x2E9 JUMPI PUSH1 0x7F DUP3 AND SWAP2 POP JUMPDEST PUSH1 0x20 DUP3 LT DUP2 SUB PUSH3 0x2FF JUMPI PUSH3 0x2FE PUSH3 0x2A1 JUMP JUMPDEST JUMPDEST POP SWAP2 SWAP1 POP JUMP JUMPDEST PUSH1 0x0 DUP2 SWAP1 POP DUP2 PUSH1 0x0 MSTORE PUSH1 0x20 PUSH1 0x0 KECCAK256 SWAP1 POP SWAP2 SWAP1 POP JUMP JUMPDEST PUSH1 0x0 PUSH1 0x20 PUSH1 0x1F DUP4 ADD DIV SWAP1 POP SWAP2 SWAP1 POP JUMP JUMPDEST PUSH1 0x0 DUP3 DUP3 SHL SWAP1 POP SWAP3 SWAP2 POP POP JUMP JUMPDEST PUSH1 0x0 PUSH1 0x8 DUP4 MUL PUSH3 0x369 PUSH32 0xFFFFFFFFFFFFFFFFFFFFFFFFFFFFFFFFFFFFFFFFFFFFFFFFFFFFFFFFFFFFFFFF DUP3 PUSH3 0x32A JUMP JUMPDEST PUSH3 0x375 DUP7 DUP4 PUSH3 0x32A JUMP JUMPDEST SWAP6 POP DUP1 NOT DUP5 AND SWAP4 POP DUP1 DUP7 AND DUP5 OR SWAP3 POP POP POP SWAP4 SWAP3 POP POP POP JUMP JUMPDEST PUSH1 0x0 DUP2 SWAP1 POP SWAP2 SWAP1 POP JUMP JUMPDEST PUSH1 0x0 DUP2 SWAP1 POP SWAP2 SWAP1 POP JUMP JUMPDEST PUSH1 0x0 PUSH3 0x3C2 PUSH3 0x3BC PUSH3 0x3B6 DUP5 PUSH3 0x38D JUMP JUMPDEST PUSH3 0x397 JUMP JUMPDEST PUSH3 0x38D JUMP JUMPDEST SWAP1 POP SWAP2 SWAP1 POP JUMP JUMPDEST PUSH1 0x0 DUP2 SWAP1 POP SWAP2 SWAP1 POP JUMP JUMPDEST PUSH3 0x3DE DUP4 PUSH3 0x3A1 JUMP JUMPDEST PUSH3 0x3F6 PUSH3 0x3ED DUP3 PUSH3 0x3C9 JUMP JUMPDEST DUP5 DUP5 SLOAD PUSH3 0x337 JUMP JUMPDEST DUP3 SSTORE POP POP POP POP JUMP JUMPDEST PUSH1 0x0 SWAP1 JUMP JUMPDEST PUSH3 0x40D PUSH3 0x3FE JUMP JUMPDEST PUSH3 0x41A DUP2 DUP5 DUP5 PUSH3 0x3D3 JUMP JUMPDEST POP POP POP JUMP JUMPDEST JUMPDEST DUP2 DUP2 LT ISZERO PUSH3 0x442 JUMPI PUSH3 0x436 PUSH1 0x0 DUP3 PUSH3 0x403 JUMP JUMPDEST PUSH1 0x1 DUP2 ADD SWAP1 POP PUSH3 0x420 JUMP JUMPDEST POP POP JUMP JUMPDEST PUSH1 0x1F DUP3 GT ISZERO PUSH3 0x491 JUMPI PUSH3 0x45B DUP2 PUSH3 0x305 JUMP JUMPDEST PUSH3 0x466 DUP5 PUSH3 0x31A JUMP JUMPDEST DUP2 ADD PUSH1 0x20 DUP6 LT ISZERO PUSH3 0x476 JUMPI DUP2 SWAP1 POP JUMPDEST PUSH3 0x48E PUSH3 0x485 DUP6 PUSH3 0x31A JUMP JUMPDEST DUP4 ADD DUP3 PUSH3 0x41F JUMP JUMPDEST POP POP JUMPDEST POP POP POP JUMP JUMPDEST PUSH1 0x0 DUP3 DUP3 SHR SWAP1 POP SWAP3 SWAP2 POP POP JUMP JUMPDEST PUSH1 0x0 PUSH3 0x4B6 PUSH1 0x0 NOT DUP5 PUSH1 0x8 MUL PUSH3 0x496 JUMP JUMPDEST NOT DUP1 DUP4 AND SWAP2 POP POP SWAP3 SWAP2 POP POP JUMP JUMPDEST PUSH1 0x0 PUSH3 0x4D1 DUP4 DUP4 PUSH3 0x4A3 JUMP JUMPDEST SWAP2 POP DUP3 PUSH1 0x2 MUL DUP3 OR SWAP1 POP SWAP3 SWAP2 POP POP JUMP JUMPDEST PUSH3 0x4EC DUP3 PUSH3 0x296 JUMP JUMPDEST PUSH8 0xFFFFFFFFFFFFFFFF DUP2 GT ISZERO PUSH3 0x508 JUMPI PUSH3 0x507 PUSH3 0xAD JUMP JUMPDEST JUMPDEST PUSH3 0x514 DUP3 SLOAD PUSH3 0x2D0 JUMP JUMPDEST PUSH3 0x521 DUP3 DUP3 DUP6 PUSH3 0x446 JUMP JUMPDEST PUSH1 0x0 PUSH1 0x20 SWAP1 POP PUSH1 0x1F DUP4 GT PUSH1 0x1 DUP2 EQ PUSH3 0x559 JUMPI PUSH1 0x0 DUP5 ISZERO PUSH3 0x544 JUMPI DUP3 DUP8 ADD MLOAD SWAP1 POP JUMPDEST PUSH3 0x550 DUP6 DUP3 PUSH3 0x4C3 JUMP JUMPDEST DUP7 SSTORE POP PUSH3 0x5C0 JUMP JUMPDEST PUSH1 0x1F NOT DUP5 AND PUSH3 0x569 DUP7 PUSH3 0x305 JUMP JUMPDEST PUSH1 0x0 JUMPDEST DUP3 DUP2 LT ISZERO PUSH3 0x593 JUMPI DUP5 DUP10 ADD MLOAD DUP3 SSTORE PUSH1 0x1 DUP3 ADD SWAP2 POP PUSH1 0x20 DUP6 ADD SWAP5 POP PUSH1 0x20 DUP2 ADD SWAP1 POP PUSH3 0x56C JUMP JUMPDEST DUP7 DUP4 LT ISZERO PUSH3 0x5B3 JUMPI DUP5 DUP10 ADD MLOAD PUSH3 0x5AF PUSH1 0x1F DUP10 AND DUP3 PUSH3 0x4A3 JUMP JUMPDEST DUP4 SSTORE POP JUMPDEST PUSH1 0x1 PUSH1 0x2 DUP9 MUL ADD DUP9 SSTORE POP POP POP JUMPDEST POP POP POP POP POP POP JUMP JUMPDEST PUSH2 0x27E DUP1 PUSH3 0x5D8 PUSH1 0x0 CODECOPY PUSH1 0x0 RETURN INVALID PUSH1 0x80 PUSH1 0x40 MSTORE PUSH1 0x4 CALLDATASIZE LT PUSH2 0x2D JUMPI PUSH1 0x0 CALLDATALOAD PUSH1 0xE0 SHR DUP1 PUSH4 0xEEE4F7E EQ PUSH2 0x36 JUMPI DUP1 PUSH4 0x4E2285F1 EQ PUSH2 0x4D JUMPI PUSH2 0x34 JUMP JUMPDEST CALLDATASIZE PUSH2 0x34 JUMPI STOP JUMPDEST STOP JUMPDEST CALLVALUE DUP1 ISZERO PUSH2 0x42 JUMPI PUSH1 0x0 DUP1 REVERT JUMPDEST POP PUSH2 0x4B PUSH2 0x78 JUMP JUMPDEST STOP JUMPDEST CALLVALUE DUP1 ISZERO PUSH2 0x59 JUMPI PUSH1 0x0 DUP1 REVERT JUMPDEST POP PUSH2 0x62 PUSH2 0xA4 JUMP JUMPDEST PUSH1 0x40 MLOAD PUSH2 0x6F SWAP2 SWAP1 PUSH2 0x1C6 JUMP JUMPDEST PUSH1 0x40 MLOAD DUP1 SWAP2 SUB SWAP1 RETURN JUMPDEST PUSH1 0x1 PUSH1 0x0 SWAP1 SLOAD SWAP1 PUSH2 0x100 EXP SWAP1 DIV PUSH1 0xFF AND ISZERO PUSH1 0x1 PUSH1 0x0 PUSH2 0x100 EXP DUP2 SLOAD DUP2 PUSH1 0xFF MUL NOT AND SWAP1 DUP4 ISZERO ISZERO MUL OR SWAP1 SSTORE POP JUMP JUMPDEST PUSH1 0x60 PUSH1 0x0 DUP1 SLOAD PUSH2 0xB3 SWAP1 PUSH2 0x217 JUMP JUMPDEST DUP1 PUSH1 0x1F ADD PUSH1 0x20 DUP1 SWAP2 DIV MUL PUSH1 0x20 ADD PUSH1 0x40 MLOAD SWAP1 DUP2 ADD PUSH1 0x40 MSTORE DUP1 SWAP3 SWAP2 SWAP1 DUP2 DUP2 MSTORE PUSH1 0x20 ADD DUP3 DUP1 SLOAD PUSH2 0xDF SWAP1 PUSH2 0x217 JUMP JUMPDEST DUP1 ISZERO PUSH2 0x12C JUMPI DUP1 PUSH1 0x1F LT PUSH2 0x101 JUMPI PUSH2 0x100 DUP1 DUP4 SLOAD DIV MUL DUP4 MSTORE SWAP2 PUSH1 0x20 ADD SWAP2 PUSH2 0x12C JUMP JUMPDEST DUP3 ADD SWAP2 SWAP1 PUSH1 0x0 MSTORE PUSH1 0x20 PUSH1 0x0 KECCAK256 SWAP1 JUMPDEST DUP2 SLOAD DUP2 MSTORE SWAP1 PUSH1 0x1 ADD SWAP1 PUSH1 0x20 ADD DUP1 DUP4 GT PUSH2 0x10F JUMPI DUP3 SWAP1 SUB PUSH1 0x1F AND DUP3 ADD SWAP2 JUMPDEST POP POP POP POP POP SWAP1 POP SWAP1 JUMP JUMPDEST PUSH1 0x0 DUP2 MLOAD SWAP1 POP SWAP2 SWAP1 POP JUMP JUMPDEST PUSH1 0x0 DUP3 DUP3 MSTORE PUSH1 0x20 DUP3 ADD SWAP1 POP SWAP3 SWAP2 POP POP JUMP JUMPDEST PUSH1 0x0 JUMPDEST DUP4 DUP2 LT ISZERO PUSH2 0x170 JUMPI DUP1 DUP3 ADD MLOAD DUP2 DUP5 ADD MSTORE PUSH1 0x20 DUP2 ADD SWAP1 POP PUSH2 0x155 JUMP JUMPDEST PUSH1 0x0 DUP5 DUP5 ADD MSTORE POP POP POP POP JUMP JUMPDEST PUSH1 0x0 PUSH1 0x1F NOT PUSH1 0x1F DUP4 ADD AND SWAP1 POP SWAP2 SWAP1 POP JUMP JUMPDEST PUSH1 0x0 PUSH2 0x198 DUP3 PUSH2 0x136 JUMP JUMPDEST PUSH2 0x1A2 DUP2 DUP6 PUSH2 0x141 JUMP JUMPDEST SWAP4 POP PUSH2 0x1B2 DUP2 DUP6 PUSH1 0x20 DUP7 ADD PUSH2 0x152 JUMP JUMPDEST PUSH2 0x1BB DUP2 PUSH2 0x17C JUMP JUMPDEST DUP5 ADD SWAP2 POP POP SWAP3 SWAP2 POP POP JUMP JUMPDEST PUSH1 0x0 PUSH1 0x20 DUP3 ADD SWAP1 POP DUP2 DUP2 SUB PUSH1 0x0 DUP4 ADD MSTORE PUSH2 0x1E0 DUP2 DUP5 PUSH2 0x18D JUMP JUMPDEST SWAP1 POP SWAP3 SWAP2 POP POP JUMP JUMPDEST PUSH32 0x4E487B7100000000000000000000000000000000000000000000000000000000 PUSH1 0x0 MSTORE PUSH1 0x22 PUSH1 0x4 MSTORE PUSH1 0x24 PUSH1 0x0 REVERT JUMPDEST PUSH1 0x0 PUSH1 0x2 DUP3 DIV SWAP1 POP PUSH1 0x1 DUP3 AND DUP1 PUSH2 0x22F JUMPI PUSH1 0x7F DUP3 AND SWAP2 POP JUMPDEST PUSH1 0x20 DUP3 LT DUP2 SUB PUSH2 0x242 JUMPI PUSH2 0x241 PUSH2 0x1E8 JUMP JUMPDEST JUMPDEST POP SWAP2 SWAP1 POP JUMP INVALID LOG2 PUSH5 0x6970667358 0x22 SLT KECCAK256 0xC9 MOD EXTCODESIZE EXTCODEHASH PUSH32 0x288DAC2F3696A8E9805E8B725970F62184D87BD8813688885D878864736F6C63 NUMBER STOP ADDMOD SLT STOP CALLER LOG2 PUSH5 0x6970667358 0x22 SLT KECCAK256 SIGNEXTEND 0x5F 0x27 PUSH22 0xE45BA993279BCF29F395CF7520582BC8F4A9021B2F80 0xE6 MLOAD BASEFEE SGT DUP1 SWAP14 PUSH5 0x736F6C6343 STOP ADDMOD SLT STOP CALLER "},"methodIdentifiers":{"createIdw3(string,string)":"6b972e8d","deployedIdw3s(uint256)":"75dbf2e5","evaluateKYCAndVault()":"c853afba","idw3sByOwner(address,uint256)":"9b628931"}}}}}