{"contracts/Idw3Factory.sol":{"Idw3Factory":{"abi":[{"inputs":[{"internalType":"string","name":"_vaultId","type":"string"},{"internalType":"bool","name":"_isSentient","type":"bool"}],"name":"createIdw3","outputs":[],"stateMutability":"payable","type":"function"},{"inputs":[{"internalType":"uint256","name":"","type":"uint256"}],"name":"deployedIdw3s","outputs":[{"internalType":"address","name":"","type":"address"}],"stateMutability":"view","type":"function"},{"inputs":[],"name":"evaluateIfUserHasIdw3","outputs":[{"internalType":"bool","name":"","type":"bool"}],"stateMutability":"view","type":"function"},{"inputs":[{"internalType":"address","name":"","type":"address"}],"name":"idw3Owners","outputs":[{"internalType":"bool","name":"","type":"bool"}],"stateMutability":"view","type":"function"},{"inputs":[{"internalType":"address","name":"","type":"address"}],"name":"idw3s","outputs":[{"internalType":"address","name":"","type":"address"}],"stateMutability":"view","type":"function"}],"evm":{"bytecode":{"linkReferences":{},"object":"608060405234801561001057600080fd5b50611186806100206000396000f3fe608060405260043610620000505760003560e01c80635ce84147146200005557806366aaa4b7146200008557806375dbf2e514620000c95780637ed1236b146200010d578063ae6c25fa146200012d575b600080fd5b3480156200006257600080fd5b506200006d62000171565b6040516200007c9190620003df565b60405180910390f35b3480156200009257600080fd5b50620000b16004803603810190620000ab919062000475565b620001de565b604051620000c09190620003df565b60405180910390f35b348015620000d657600080fd5b50620000f56004803603810190620000ef9190620004e2565b620001fe565b60405162000104919062000525565b60405180910390f35b6200012b6004803603810190620001259190620006d5565b6200023e565b005b3480156200013a57600080fd5b5062000159600480360381019062000153919062000475565b62000381565b60405162000168919062000525565b60405180910390f35b600060011515600160003373ffffffffffffffffffffffffffffffffffffffff1673ffffffffffffffffffffffffffffffffffffffff16815260200190815260200160002060009054906101000a900460ff16151503620001d65760019050620001db565b600090505b90565b60016020528060005260406000206000915054906101000a900460ff1681565b600081815481106200020f57600080fd5b906000526020600020016000915054906101000a900473ffffffffffffffffffffffffffffffffffffffff1681565b336040516020016200025191906200078b565b60405160208183030381529060405280519060200120600083836040516200027990620003b4565b6200028692919062000831565b604051809103906000f080158015620002a3573d6000803e3d6000fd5b50905060018060003373ffffffffffffffffffffffffffffffffffffffff1673ffffffffffffffffffffffffffffffffffffffff16815260200190815260200160002060006101000a81548160ff02191690831515021790555080600260003373ffffffffffffffffffffffffffffffffffffffff1673ffffffffffffffffffffffffffffffffffffffff16815260200190815260200160002060006101000a81548173ffffffffffffffffffffffffffffffffffffffff021916908373ffffffffffffffffffffffffffffffffffffffff16021790555050505050565b60026020528060005260406000206000915054906101000a900473ffffffffffffffffffffffffffffffffffffffff1681565b6108eb806200086683390190565b60008115159050919050565b620003d981620003c2565b82525050565b6000602082019050620003f66000830184620003ce565b92915050565b6000604051905090565b600080fd5b600080fd5b600073ffffffffffffffffffffffffffffffffffffffff82169050919050565b60006200043d8262000410565b9050919050565b6200044f8162000430565b81146200045b57600080fd5b50565b6000813590506200046f8162000444565b92915050565b6000602082840312156200048e576200048d62000406565b5b60006200049e848285016200045e565b91505092915050565b6000819050919050565b620004bc81620004a7565b8114620004c857600080fd5b50565b600081359050620004dc81620004b1565b92915050565b600060208284031215620004fb57620004fa62000406565b5b60006200050b84828501620004cb565b91505092915050565b6200051f8162000430565b82525050565b60006020820190506200053c600083018462000514565b92915050565b600080fd5b600080fd5b6000601f19601f8301169050919050565b7f4e487b7100000000000000000000000000000000000000000000000000000000600052604160045260246000fd5b62000597826200054c565b810181811067ffffffffffffffff82111715620005b957620005b86200055d565b5b80604052505050565b6000620005ce620003fc565b9050620005dc82826200058c565b919050565b600067ffffffffffffffff821115620005ff57620005fe6200055d565b5b6200060a826200054c565b9050602081019050919050565b82818337600083830152505050565b60006200063d6200063784620005e1565b620005c2565b9050828152602081018484840111156200065c576200065b62000547565b5b6200066984828562000617565b509392505050565b600082601f83011262000689576200068862000542565b5b81356200069b84826020860162000626565b91505092915050565b620006af81620003c2565b8114620006bb57600080fd5b50565b600081359050620006cf81620006a4565b92915050565b60008060408385031215620006ef57620006ee62000406565b5b600083013567ffffffffffffffff81111562000710576200070f6200040b565b5b6200071e8582860162000671565b92505060206200073185828601620006be565b9150509250929050565b60008160601b9050919050565b600062000755826200073b565b9050919050565b6000620007698262000748565b9050919050565b620007856200077f8262000430565b6200075c565b82525050565b600062000799828462000770565b60148201915081905092915050565b600081519050919050565b600082825260208201905092915050565b60005b83811015620007e4578082015181840152602081019050620007c7565b60008484015250505050565b6000620007fd82620007a8565b620008098185620007b3565b93506200081b818560208601620007c4565b62000826816200054c565b840191505092915050565b600060408201905081810360008301526200084d8185620007f0565b90506200085e6020830184620003ce565b939250505056fe60806040523480156200001157600080fd5b50604051620008eb380380620008eb833981810160405281019062000037919062000255565b816000908162000048919062000506565b50806001806101000a81548160ff0219169083151502179055506000600160006101000a81548160ff0219169083151502179055505050620005ed565b6000604051905090565b600080fd5b600080fd5b600080fd5b600080fd5b6000601f19601f8301169050919050565b7f4e487b7100000000000000000000000000000000000000000000000000000000600052604160045260246000fd5b620000ee82620000a3565b810181811067ffffffffffffffff8211171562000110576200010f620000b4565b5b80604052505050565b60006200012562000085565b9050620001338282620000e3565b919050565b600067ffffffffffffffff821115620001565762000155620000b4565b5b6200016182620000a3565b9050602081019050919050565b60005b838110156200018e57808201518184015260208101905062000171565b60008484015250505050565b6000620001b1620001ab8462000138565b62000119565b905082815260208101848484011115620001d057620001cf6200009e565b5b620001dd8482856200016e565b509392505050565b600082601f830112620001fd57620001fc62000099565b5b81516200020f8482602086016200019a565b91505092915050565b60008115159050919050565b6200022f8162000218565b81146200023b57600080fd5b50565b6000815190506200024f8162000224565b92915050565b600080604083850312156200026f576200026e6200008f565b5b600083015167ffffffffffffffff81111562000290576200028f62000094565b5b6200029e85828601620001e5565b9250506020620002b1858286016200023e565b9150509250929050565b600081519050919050565b7f4e487b7100000000000000000000000000000000000000000000000000000000600052602260045260246000fd5b600060028204905060018216806200030e57607f821691505b602082108103620003245762000323620002c6565b5b50919050565b60008190508160005260206000209050919050565b60006020601f8301049050919050565b600082821b905092915050565b6000600883026200038e7fffffffffffffffffffffffffffffffffffffffffffffffffffffffffffffffff826200034f565b6200039a86836200034f565b95508019841693508086168417925050509392505050565b6000819050919050565b6000819050919050565b6000620003e7620003e1620003db84620003b2565b620003bc565b620003b2565b9050919050565b6000819050919050565b6200040383620003c6565b6200041b6200041282620003ee565b8484546200035c565b825550505050565b600090565b6200043262000423565b6200043f818484620003f8565b505050565b5b8181101562000467576200045b60008262000428565b60018101905062000445565b5050565b601f821115620004b65762000480816200032a565b6200048b846200033f565b810160208510156200049b578190505b620004b3620004aa856200033f565b83018262000444565b50505b505050565b600082821c905092915050565b6000620004db60001984600802620004bb565b1980831691505092915050565b6000620004f68383620004c8565b9150826002028217905092915050565b6200051182620002bb565b67ffffffffffffffff8111156200052d576200052c620000b4565b5b620005398254620002f5565b620005468282856200046b565b600060209050601f8311600181146200057e576000841562000569578287015190505b620005758582620004e8565b865550620005e5565b601f1984166200058e866200032a565b60005b82811015620005b85784890151825560018201915060208501945060208101905062000591565b86831015620005d85784890151620005d4601f891682620004c8565b8355505b6001600288020188555050505b505050505050565b6102ee80620005fd6000396000f3fe6080604052600436106100385760003560e01c80630eee4f7e146100415780634e2285f11461004b5780636a67555b146100765761003f565b3661003f57005b005b6100496100a1565b005b34801561005757600080fd5b506100606100cd565b60405161006d9190610200565b60405180910390f35b34801561008257600080fd5b5061008b61015f565b604051610098919061023d565b60405180910390f35b600160009054906101000a900460ff1615600160006101000a81548160ff021916908315150217905550565b6060600080546100dc90610287565b80601f016020809104026020016040519081016040528092919081815260200182805461010890610287565b80156101555780601f1061012a57610100808354040283529160200191610155565b820191906000526020600020905b81548152906001019060200180831161013857829003601f168201915b5050505050905090565b60018054906101000a900460ff1681565b600081519050919050565b600082825260208201905092915050565b60005b838110156101aa57808201518184015260208101905061018f565b60008484015250505050565b6000601f19601f8301169050919050565b60006101d282610170565b6101dc818561017b565b93506101ec81856020860161018c565b6101f5816101b6565b840191505092915050565b6000602082019050818103600083015261021a81846101c7565b905092915050565b60008115159050919050565b61023781610222565b82525050565b6000602082019050610252600083018461022e565b92915050565b7f4e487b7100000000000000000000000000000000000000000000000000000000600052602260045260246000fd5b6000600282049050600182168061029f57607f821691505b6020821081036102b2576102b1610258565b5b5091905056fea26469706673582212201450cdfee2fd609f028f108ca1d5452b0e6d9ab9c283e18790b0a520ff628e7b64736f6c63430008120033a264697066735822122003da6768ce4bcede128c53e1e173089906f49c8b7758a7edb2a68147532c310564736f6c63430008120033","opcodes":"PUSH1 0x80 PUSH1 0x40 MSTORE CALLVALUE DUP1 ISZERO PUSH2 0x10 JUMPI PUSH1 0x0 DUP1 REVERT JUMPDEST POP PUSH2 0x1186 DUP1 PUSH2 0x20 PUSH1 0x0 CODECOPY PUSH1 0x0 RETURN INVALID PUSH1 0x80 PUSH1 0x40 MSTORE PUSH1 0x4 CALLDATASIZE LT PUSH3 0x50 JUMPI PUSH1 0x0 CALLDATALOAD PUSH1 0xE0 SHR DUP1 PUSH4 0x5CE84147 EQ PUSH3 0x55 JUMPI DUP1 PUSH4 0x66AAA4B7 EQ PUSH3 0x85 JUMPI DUP1 PUSH4 0x75DBF2E5 EQ PUSH3 0xC9 JUMPI DUP1 PUSH4 0x7ED1236B EQ PUSH3 0x10D JUMPI DUP1 PUSH4 0xAE6C25FA EQ PUSH3 0x12D JUMPI JUMPDEST PUSH1 0x0 DUP1 REVERT JUMPDEST CALLVALUE DUP1 ISZERO PUSH3 0x62 JUMPI PUSH1 0x0 DUP1 REVERT JUMPDEST POP PUSH3 0x6D PUSH3 0x171 JUMP JUMPDEST PUSH1 0x40 MLOAD PUSH3 0x7C SWAP2 SWAP1 PUSH3 0x3DF JUMP JUMPDEST PUSH1 0x40 MLOAD DUP1 SWAP2 SUB SWAP1 RETURN JUMPDEST CALLVALUE DUP1 ISZERO PUSH3 0x92 JUMPI PUSH1 0x0 DUP1 REVERT JUMPDEST POP PUSH3 0xB1 PUSH1 0x4 DUP1 CALLDATASIZE SUB DUP2 ADD SWAP1 PUSH3 0xAB SWAP2 SWAP1 PUSH3 0x475 JUMP JUMPDEST PUSH3 0x1DE JUMP JUMPDEST PUSH1 0x40 MLOAD PUSH3 0xC0 SWAP2 SWAP1 PUSH3 0x3DF JUMP JUMPDEST PUSH1 0x40 MLOAD DUP1 SWAP2 SUB SWAP1 RETURN JUMPDEST CALLVALUE DUP1 ISZERO PUSH3 0xD6 JUMPI PUSH1 0x0 DUP1 REVERT JUMPDEST POP PUSH3 0xF5 PUSH1 0x4 DUP1 CALLDATASIZE SUB DUP2 ADD SWAP1 PUSH3 0xEF SWAP2 SWAP1 PUSH3 0x4E2 JUMP JUMPDEST PUSH3 0x1FE JUMP JUMPDEST PUSH1 0x40 MLOAD PUSH3 0x104 SWAP2 SWAP1 PUSH3 0x525 JUMP JUMPDEST PUSH1 0x40 MLOAD DUP1 SWAP2 SUB SWAP1 RETURN JUMPDEST PUSH3 0x12B PUSH1 0x4 DUP1 CALLDATASIZE SUB DUP2 ADD SWAP1 PUSH3 0x125 SWAP2 SWAP1 PUSH3 0x6D5 JUMP JUMPDEST PUSH3 0x23E JUMP JUMPDEST STOP JUMPDEST CALLVALUE DUP1 ISZERO PUSH3 0x13A JUMPI PUSH1 0x0 DUP1 REVERT JUMPDEST POP PUSH3 0x159 PUSH1 0x4 DUP1 CALLDATASIZE SUB DUP2 ADD SWAP1 PUSH3 0x153 SWAP2 SWAP1 PUSH3 0x475 JUMP JUMPDEST PUSH3 0x381 JUMP JUMPDEST PUSH1 0x40 MLOAD PUSH3 0x168 SWAP2 SWAP1 PUSH3 0x525 JUMP JUMPDEST PUSH1 0x40 MLOAD DUP1 SWAP2 SUB SWAP1 RETURN JUMPDEST PUSH1 0x0 PUSH1 0x1 ISZERO ISZERO PUSH1 0x1 PUSH1 0x0 CALLER PUSH20 0xFFFFFFFFFFFFFFFFFFFFFFFFFFFFFFFFFFFFFFFF AND PUSH20 0xFFFFFFFFFFFFFFFFFFFFFFFFFFFFFFFFFFFFFFFF AND DUP2 MSTORE PUSH1 0x20 ADD SWAP1 DUP2 MSTORE PUSH1 0x20 ADD PUSH1 0x0 KECCAK256 PUSH1 0x0 SWAP1 SLOAD SWAP1 PUSH2 0x100 EXP SWAP1 DIV PUSH1 0xFF AND ISZERO ISZERO SUB PUSH3 0x1D6 JUMPI PUSH1 0x1 SWAP1 POP PUSH3 0x1DB JUMP JUMPDEST PUSH1 0x0 SWAP1 POP JUMPDEST SWAP1 JUMP JUMPDEST PUSH1 0x1 PUSH1 0x20 MSTORE DUP1 PUSH1 0x0 MSTORE PUSH1 0x40 PUSH1 0x0 KECCAK256 PUSH1 0x0 SWAP2 POP SLOAD SWAP1 PUSH2 0x100 EXP SWAP1 DIV PUSH1 0xFF AND DUP2 JUMP JUMPDEST PUSH1 0x0 DUP2 DUP2 SLOAD DUP2 LT PUSH3 0x20F JUMPI PUSH1 0x0 DUP1 REVERT JUMPDEST SWAP1 PUSH1 0x0 MSTORE PUSH1 0x20 PUSH1 0x0 KECCAK256 ADD PUSH1 0x0 SWAP2 POP SLOAD SWAP1 PUSH2 0x100 EXP SWAP1 DIV PUSH20 0xFFFFFFFFFFFFFFFFFFFFFFFFFFFFFFFFFFFFFFFF AND DUP2 JUMP JUMPDEST CALLER PUSH1 0x40 MLOAD PUSH1 0x20 ADD PUSH3 0x251 SWAP2 SWAP1 PUSH3 0x78B JUMP JUMPDEST PUSH1 0x40 MLOAD PUSH1 0x20 DUP2 DUP4 SUB SUB DUP2 MSTORE SWAP1 PUSH1 0x40 MSTORE DUP1 MLOAD SWAP1 PUSH1 0x20 ADD KECCAK256 PUSH1 0x0 DUP4 DUP4 PUSH1 0x40 MLOAD PUSH3 0x279 SWAP1 PUSH3 0x3B4 JUMP JUMPDEST PUSH3 0x286 SWAP3 SWAP2 SWAP1 PUSH3 0x831 JUMP JUMPDEST PUSH1 0x40 MLOAD DUP1 SWAP2 SUB SWAP1 PUSH1 0x0 CREATE DUP1 ISZERO DUP1 ISZERO PUSH3 0x2A3 JUMPI RETURNDATASIZE PUSH1 0x0 DUP1 RETURNDATACOPY RETURNDATASIZE PUSH1 0x0 REVERT JUMPDEST POP SWAP1 POP PUSH1 0x1 DUP1 PUSH1 0x0 CALLER PUSH20 0xFFFFFFFFFFFFFFFFFFFFFFFFFFFFFFFFFFFFFFFF AND PUSH20 0xFFFFFFFFFFFFFFFFFFFFFFFFFFFFFFFFFFFFFFFF AND DUP2 MSTORE PUSH1 0x20 ADD SWAP1 DUP2 MSTORE PUSH1 0x20 ADD PUSH1 0x0 KECCAK256 PUSH1 0x0 PUSH2 0x100 EXP DUP2 SLOAD DUP2 PUSH1 0xFF MUL NOT AND SWAP1 DUP4 ISZERO ISZERO MUL OR SWAP1 SSTORE POP DUP1 PUSH1 0x2 PUSH1 0x0 CALLER PUSH20 0xFFFFFFFFFFFFFFFFFFFFFFFFFFFFFFFFFFFFFFFF AND PUSH20 0xFFFFFFFFFFFFFFFFFFFFFFFFFFFFFFFFFFFFFFFF AND DUP2 MSTORE PUSH1 0x20 ADD SWAP1 DUP2 MSTORE PUSH1 0x20 ADD PUSH1 0x0 KECCAK256 PUSH1 0x0 PUSH2 0x100 EXP DUP2 SLOAD DUP2 PUSH20 0xFFFFFFFFFFFFFFFFFFFFFFFFFFFFFFFFFFFFFFFF MUL NOT AND SWAP1 DUP4 PUSH20 0xFFFFFFFFFFFFFFFFFFFFFFFFFFFFFFFFFFFFFFFF AND MUL OR SWAP1 SSTORE POP POP POP POP POP JUMP JUMPDEST PUSH1 0x2 PUSH1 0x20 MSTORE DUP1 PUSH1 0x0 MSTORE PUSH1 0x40 PUSH1 0x0 KECCAK256 PUSH1 0x0 SWAP2 POP SLOAD SWAP1 PUSH2 0x100 EXP SWAP1 DIV PUSH20 0xFFFFFFFFFFFFFFFFFFFFFFFFFFFFFFFFFFFFFFFF AND DUP2 JUMP JUMPDEST PUSH2 0x8EB DUP1 PUSH3 0x866 DUP4 CODECOPY ADD SWAP1 JUMP JUMPDEST PUSH1 0x0 DUP2 ISZERO ISZERO SWAP1 POP SWAP2 SWAP1 POP JUMP JUMPDEST PUSH3 0x3D9 DUP2 PUSH3 0x3C2 JUMP JUMPDEST DUP3 MSTORE POP POP JUMP JUMPDEST PUSH1 0x0 PUSH1 0x20 DUP3 ADD SWAP1 POP PUSH3 0x3F6 PUSH1 0x0 DUP4 ADD DUP5 PUSH3 0x3CE JUMP JUMPDEST SWAP3 SWAP2 POP POP JUMP JUMPDEST PUSH1 0x0 PUSH1 0x40 MLOAD SWAP1 POP SWAP1 JUMP JUMPDEST PUSH1 0x0 DUP1 REVERT JUMPDEST PUSH1 0x0 DUP1 REVERT JUMPDEST PUSH1 0x0 PUSH20 0xFFFFFFFFFFFFFFFFFFFFFFFFFFFFFFFFFFFFFFFF DUP3 AND SWAP1 POP SWAP2 SWAP1 POP JUMP JUMPDEST PUSH1 0x0 PUSH3 0x43D DUP3 PUSH3 0x410 JUMP JUMPDEST SWAP1 POP SWAP2 SWAP1 POP JUMP JUMPDEST PUSH3 0x44F DUP2 PUSH3 0x430 JUMP JUMPDEST DUP2 EQ PUSH3 0x45B JUMPI PUSH1 0x0 DUP1 REVERT JUMPDEST POP JUMP JUMPDEST PUSH1 0x0 DUP2 CALLDATALOAD SWAP1 POP PUSH3 0x46F DUP2 PUSH3 0x444 JUMP JUMPDEST SWAP3 SWAP2 POP POP JUMP JUMPDEST PUSH1 0x0 PUSH1 0x20 DUP3 DUP5 SUB SLT ISZERO PUSH3 0x48E JUMPI PUSH3 0x48D PUSH3 0x406 JUMP JUMPDEST JUMPDEST PUSH1 0x0 PUSH3 0x49E DUP5 DUP3 DUP6 ADD PUSH3 0x45E JUMP JUMPDEST SWAP2 POP POP SWAP3 SWAP2 POP POP JUMP JUMPDEST PUSH1 0x0 DUP2 SWAP1 POP SWAP2 SWAP1 POP JUMP JUMPDEST PUSH3 0x4BC DUP2 PUSH3 0x4A7 JUMP JUMPDEST DUP2 EQ PUSH3 0x4C8 JUMPI PUSH1 0x0 DUP1 REVERT JUMPDEST POP JUMP JUMPDEST PUSH1 0x0 DUP2 CALLDATALOAD SWAP1 POP PUSH3 0x4DC DUP2 PUSH3 0x4B1 JUMP JUMPDEST SWAP3 SWAP2 POP POP JUMP JUMPDEST PUSH1 0x0 PUSH1 0x20 DUP3 DUP5 SUB SLT ISZERO PUSH3 0x4FB JUMPI PUSH3 0x4FA PUSH3 0x406 JUMP JUMPDEST JUMPDEST PUSH1 0x0 PUSH3 0x50B DUP5 DUP3 DUP6 ADD PUSH3 0x4CB JUMP JUMPDEST SWAP2 POP POP SWAP3 SWAP2 POP POP JUMP JUMPDEST PUSH3 0x51F DUP2 PUSH3 0x430 JUMP JUMPDEST DUP3 MSTORE POP POP JUMP JUMPDEST PUSH1 0x0 PUSH1 0x20 DUP3 ADD SWAP1 POP PUSH3 0x53C PUSH1 0x0 DUP4 ADD DUP5 PUSH3 0x514 JUMP JUMPDEST SWAP3 SWAP2 POP POP JUMP JUMPDEST PUSH1 0x0 DUP1 REVERT JUMPDEST PUSH1 0x0 DUP1 REVERT JUMPDEST PUSH1 0x0 PUSH1 0x1F NOT PUSH1 0x1F DUP4 ADD AND SWAP1 POP SWAP2 SWAP1 POP JUMP JUMPDEST PUSH32 0x4E487B7100000000000000000000000000000000000000000000000000000000 PUSH1 0x0 MSTORE PUSH1 0x41 PUSH1 0x4 MSTORE PUSH1 0x24 PUSH1 0x0 REVERT JUMPDEST PUSH3 0x597 DUP3 PUSH3 0x54C JUMP JUMPDEST DUP2 ADD DUP2 DUP2 LT PUSH8 0xFFFFFFFFFFFFFFFF DUP3 GT OR ISZERO PUSH3 0x5B9 JUMPI PUSH3 0x5B8 PUSH3 0x55D JUMP JUMPDEST JUMPDEST DUP1 PUSH1 0x40 MSTORE POP POP POP JUMP JUMPDEST PUSH1 0x0 PUSH3 0x5CE PUSH3 0x3FC JUMP JUMPDEST SWAP1 POP PUSH3 0x5DC DUP3 DUP3 PUSH3 0x58C JUMP JUMPDEST SWAP2 SWAP1 POP JUMP JUMPDEST PUSH1 0x0 PUSH8 0xFFFFFFFFFFFFFFFF DUP3 GT ISZERO PUSH3 0x5FF JUMPI PUSH3 0x5FE PUSH3 0x55D JUMP JUMPDEST JUMPDEST PUSH3 0x60A DUP3 PUSH3 0x54C JUMP JUMPDEST SWAP1 POP PUSH1 0x20 DUP2 ADD SWAP1 POP SWAP2 SWAP1 POP JUMP JUMPDEST DUP3 DUP2 DUP4 CALLDATACOPY PUSH1 0x0 DUP4 DUP4 ADD MSTORE POP POP POP JUMP JUMPDEST PUSH1 0x0 PUSH3 0x63D PUSH3 0x637 DUP5 PUSH3 0x5E1 JUMP JUMPDEST PUSH3 0x5C2 JUMP JUMPDEST SWAP1 POP DUP3 DUP2 MSTORE PUSH1 0x20 DUP2 ADD DUP5 DUP5 DUP5 ADD GT ISZERO PUSH3 0x65C JUMPI PUSH3 0x65B PUSH3 0x547 JUMP JUMPDEST JUMPDEST PUSH3 0x669 DUP5 DUP3 DUP6 PUSH3 0x617 JUMP JUMPDEST POP SWAP4 SWAP3 POP POP POP JUMP JUMPDEST PUSH1 0x0 DUP3 PUSH1 0x1F DUP4 ADD SLT PUSH3 0x689 JUMPI PUSH3 0x688 PUSH3 0x542 JUMP JUMPDEST JUMPDEST DUP2 CALLDATALOAD PUSH3 0x69B DUP5 DUP3 PUSH1 0x20 DUP7 ADD PUSH3 0x626 JUMP JUMPDEST SWAP2 POP POP SWAP3 SWAP2 POP POP JUMP JUMPDEST PUSH3 0x6AF DUP2 PUSH3 0x3C2 JUMP JUMPDEST DUP2 EQ PUSH3 0x6BB JUMPI PUSH1 0x0 DUP1 REVERT JUMPDEST POP JUMP JUMPDEST PUSH1 0x0 DUP2 CALLDATALOAD SWAP1 POP PUSH3 0x6CF DUP2 PUSH3 0x6A4 JUMP JUMPDEST SWAP3 SWAP2 POP POP JUMP JUMPDEST PUSH1 0x0 DUP1 PUSH1 0x40 DUP4 DUP6 SUB SLT ISZERO PUSH3 0x6EF JUMPI PUSH3 0x6EE PUSH3 0x406 JUMP JUMPDEST JUMPDEST PUSH1 0x0 DUP4 ADD CALLDATALOAD PUSH8 0xFFFFFFFFFFFFFFFF DUP2 GT ISZERO PUSH3 0x710 JUMPI PUSH3 0x70F PUSH3 0x40B JUMP JUMPDEST JUMPDEST PUSH3 0x71E DUP6 DUP3 DUP7 ADD PUSH3 0x671 JUMP JUMPDEST SWAP3 POP POP PUSH1 0x20 PUSH3 0x731 DUP6 DUP3 DUP7 ADD PUSH3 0x6BE JUMP JUMPDEST SWAP2 POP POP SWAP3 POP SWAP3 SWAP1 POP JUMP JUMPDEST PUSH1 0x0 DUP2 PUSH1 0x60 SHL SWAP1 POP SWAP2 SWAP1 POP JUMP JUMPDEST PUSH1 0x0 PUSH3 0x755 DUP3 PUSH3 0x73B JUMP JUMPDEST SWAP1 POP SWAP2 SWAP1 POP JUMP JUMPDEST PUSH1 0x0 PUSH3 0x769 DUP3 PUSH3 0x748 JUMP JUMPDEST SWAP1 POP SWAP2 SWAP1 POP JUMP JUMPDEST PUSH3 0x785 PUSH3 0x77F DUP3 PUSH3 0x430 JUMP JUMPDEST PUSH3 0x75C JUMP JUMPDEST DUP3 MSTORE POP POP JUMP JUMPDEST PUSH1 0x0 PUSH3 0x799 DUP3 DUP5 PUSH3 0x770 JUMP JUMPDEST PUSH1 0x14 DUP3 ADD SWAP2 POP DUP2 SWAP1 POP SWAP3 SWAP2 POP POP JUMP JUMPDEST PUSH1 0x0 DUP2 MLOAD SWAP1 POP SWAP2 SWAP1 POP JUMP JUMPDEST PUSH1 0x0 DUP3 DUP3 MSTORE PUSH1 0x20 DUP3 ADD SWAP1 POP SWAP3 SWAP2 POP POP JUMP JUMPDEST PUSH1 0x0 JUMPDEST DUP4 DUP2 LT ISZERO PUSH3 0x7E4 JUMPI DUP1 DUP3 ADD MLOAD DUP2 DUP5 ADD MSTORE PUSH1 0x20 DUP2 ADD SWAP1 POP PUSH3 0x7C7 JUMP JUMPDEST PUSH1 0x0 DUP5 DUP5 ADD MSTORE POP POP POP POP JUMP JUMPDEST PUSH1 0x0 PUSH3 0x7FD DUP3 PUSH3 0x7A8 JUMP JUMPDEST PUSH3 0x809 DUP2 DUP6 PUSH3 0x7B3 JUMP JUMPDEST SWAP4 POP PUSH3 0x81B DUP2 DUP6 PUSH1 0x20 DUP7 ADD PUSH3 0x7C4 JUMP JUMPDEST PUSH3 0x826 DUP2 PUSH3 0x54C JUMP JUMPDEST DUP5 ADD SWAP2 POP POP SWAP3 SWAP2 POP POP JUMP JUMPDEST PUSH1 0x0 PUSH1 0x40 DUP3 ADD SWAP1 POP DUP2 DUP2 SUB PUSH1 0x0 DUP4 ADD MSTORE PUSH3 0x84D DUP2 DUP6 PUSH3 0x7F0 JUMP JUMPDEST SWAP1 POP PUSH3 0x85E PUSH1 0x20 DUP4 ADD DUP5 PUSH3 0x3CE JUMP JUMPDEST SWAP4 SWAP3 POP POP POP JUMP INVALID PUSH1 0x80 PUSH1 0x40 MSTORE CALLVALUE DUP1 ISZERO PUSH3 0x11 JUMPI PUSH1 0x0 DUP1 REVERT JUMPDEST POP PUSH1 0x40 MLOAD PUSH3 0x8EB CODESIZE SUB DUP1 PUSH3 0x8EB DUP4 CODECOPY DUP2 DUP2 ADD PUSH1 0x40 MSTORE DUP2 ADD SWAP1 PUSH3 0x37 SWAP2 SWAP1 PUSH3 0x255 JUMP JUMPDEST DUP2 PUSH1 0x0 SWAP1 DUP2 PUSH3 0x48 SWAP2 SWAP1 PUSH3 0x506 JUMP JUMPDEST POP DUP1 PUSH1 0x1 DUP1 PUSH2 0x100 EXP DUP2 SLOAD DUP2 PUSH1 0xFF MUL NOT AND SWAP1 DUP4 ISZERO ISZERO MUL OR SWAP1 SSTORE POP PUSH1 0x0 PUSH1 0x1 PUSH1 0x0 PUSH2 0x100 EXP DUP2 SLOAD DUP2 PUSH1 0xFF MUL NOT AND SWAP1 DUP4 ISZERO ISZERO MUL OR SWAP1 SSTORE POP POP POP PUSH3 0x5ED JUMP JUMPDEST PUSH1 0x0 PUSH1 0x40 MLOAD SWAP1 POP SWAP1 JUMP JUMPDEST PUSH1 0x0 DUP1 REVERT JUMPDEST PUSH1 0x0 DUP1 REVERT JUMPDEST PUSH1 0x0 DUP1 REVERT JUMPDEST PUSH1 0x0 DUP1 REVERT JUMPDEST PUSH1 0x0 PUSH1 0x1F NOT PUSH1 0x1F DUP4 ADD AND SWAP1 POP SWAP2 SWAP1 POP JUMP JUMPDEST PUSH32 0x4E487B7100000000000000000000000000000000000000000000000000000000 PUSH1 0x0 MSTORE PUSH1 0x41 PUSH1 0x4 MSTORE PUSH1 0x24 PUSH1 0x0 REVERT JUMPDEST PUSH3 0xEE DUP3 PUSH3 0xA3 JUMP JUMPDEST DUP2 ADD DUP2 DUP2 LT PUSH8 0xFFFFFFFFFFFFFFFF DUP3 GT OR ISZERO PUSH3 0x110 JUMPI PUSH3 0x10F PUSH3 0xB4 JUMP JUMPDEST JUMPDEST DUP1 PUSH1 0x40 MSTORE POP POP POP JUMP JUMPDEST PUSH1 0x0 PUSH3 0x125 PUSH3 0x85 JUMP JUMPDEST SWAP1 POP PUSH3 0x133 DUP3 DUP3 PUSH3 0xE3 JUMP JUMPDEST SWAP2 SWAP1 POP JUMP JUMPDEST PUSH1 0x0 PUSH8 0xFFFFFFFFFFFFFFFF DUP3 GT ISZERO PUSH3 0x156 JUMPI PUSH3 0x155 PUSH3 0xB4 JUMP JUMPDEST JUMPDEST PUSH3 0x161 DUP3 PUSH3 0xA3 JUMP JUMPDEST SWAP1 POP PUSH1 0x20 DUP2 ADD SWAP1 POP SWAP2 SWAP1 POP JUMP JUMPDEST PUSH1 0x0 JUMPDEST DUP4 DUP2 LT ISZERO PUSH3 0x18E JUMPI DUP1 DUP3 ADD MLOAD DUP2 DUP5 ADD MSTORE PUSH1 0x20 DUP2 ADD SWAP1 POP PUSH3 0x171 JUMP JUMPDEST PUSH1 0x0 DUP5 DUP5 ADD MSTORE POP POP POP POP JUMP JUMPDEST PUSH1 0x0 PUSH3 0x1B1 PUSH3 0x1AB DUP5 PUSH3 0x138 JUMP JUMPDEST PUSH3 0x119 JUMP JUMPDEST SWAP1 POP DUP3 DUP2 MSTORE PUSH1 0x20 DUP2 ADD DUP5 DUP5 DUP5 ADD GT ISZERO PUSH3 0x1D0 JUMPI PUSH3 0x1CF PUSH3 0x9E JUMP JUMPDEST JUMPDEST PUSH3 0x1DD DUP5 DUP3 DUP6 PUSH3 0x16E JUMP JUMPDEST POP SWAP4 SWAP3 POP POP POP JUMP JUMPDEST PUSH1 0x0 DUP3 PUSH1 0x1F DUP4 ADD SLT PUSH3 0x1FD JUMPI PUSH3 0x1FC PUSH3 0x99 JUMP JUMPDEST JUMPDEST DUP2 MLOAD PUSH3 0x20F DUP5 DUP3 PUSH1 0x20 DUP7 ADD PUSH3 0x19A JUMP JUMPDEST SWAP2 POP POP SWAP3 SWAP2 POP POP JUMP JUMPDEST PUSH1 0x0 DUP2 ISZERO ISZERO SWAP1 POP SWAP2 SWAP1 POP JUMP JUMPDEST PUSH3 0x22F DUP2 PUSH3 0x218 JUMP JUMPDEST DUP2 EQ PUSH3 0x23B JUMPI PUSH1 0x0 DUP1 REVERT JUMPDEST POP JUMP JUMPDEST PUSH1 0x0 DUP2 MLOAD SWAP1 POP PUSH3 0x24F DUP2 PUSH3 0x224 JUMP JUMPDEST SWAP3 SWAP2 POP POP JUMP JUMPDEST PUSH1 0x0 DUP1 PUSH1 0x40 DUP4 DUP6 SUB SLT ISZERO PUSH3 0x26F JUMPI PUSH3 0x26E PUSH3 0x8F JUMP JUMPDEST JUMPDEST PUSH1 0x0 DUP4 ADD MLOAD PUSH8 0xFFFFFFFFFFFFFFFF DUP2 GT ISZERO PUSH3 0x290 JUMPI PUSH3 0x28F PUSH3 0x94 JUMP JUMPDEST JUMPDEST PUSH3 0x29E DUP6 DUP3 DUP7 ADD PUSH3 0x1E5 JUMP JUMPDEST SWAP3 POP POP PUSH1 0x20 PUSH3 0x2B1 DUP6 DUP3 DUP7 ADD PUSH3 0x23E JUMP JUMPDEST SWAP2 POP POP SWAP3 POP SWAP3 SWAP1 POP JUMP JUMPDEST PUSH1 0x0 DUP2 MLOAD SWAP1 POP SWAP2 SWAP1 POP JUMP JUMPDEST PUSH32 0x4E487B7100000000000000000000000000000000000000000000000000000000 PUSH1 0x0 MSTORE PUSH1 0x22 PUSH1 0x4 MSTORE PUSH1 0x24 PUSH1 0x0 REVERT JUMPDEST PUSH1 0x0 PUSH1 0x2 DUP3 DIV SWAP1 POP PUSH1 0x1 DUP3 AND DUP1 PUSH3 0x30E JUMPI PUSH1 0x7F DUP3 AND SWAP2 POP JUMPDEST PUSH1 0x20 DUP3 LT DUP2 SUB PUSH3 0x324 JUMPI PUSH3 0x323 PUSH3 0x2C6 JUMP JUMPDEST JUMPDEST POP SWAP2 SWAP1 POP JUMP JUMPDEST PUSH1 0x0 DUP2 SWAP1 POP DUP2 PUSH1 0x0 MSTORE PUSH1 0x20 PUSH1 0x0 KECCAK256 SWAP1 POP SWAP2 SWAP1 POP JUMP JUMPDEST PUSH1 0x0 PUSH1 0x20 PUSH1 0x1F DUP4 ADD DIV SWAP1 POP SWAP2 SWAP1 POP JUMP JUMPDEST PUSH1 0x0 DUP3 DUP3 SHL SWAP1 POP SWAP3 SWAP2 POP POP JUMP JUMPDEST PUSH1 0x0 PUSH1 0x8 DUP4 MUL PUSH3 0x38E PUSH32 0xFFFFFFFFFFFFFFFFFFFFFFFFFFFFFFFFFFFFFFFFFFFFFFFFFFFFFFFFFFFFFFFF DUP3 PUSH3 0x34F JUMP JUMPDEST PUSH3 0x39A DUP7 DUP4 PUSH3 0x34F JUMP JUMPDEST SWAP6 POP DUP1 NOT DUP5 AND SWAP4 POP DUP1 DUP7 AND DUP5 OR SWAP3 POP POP POP SWAP4 SWAP3 POP POP POP JUMP JUMPDEST PUSH1 0x0 DUP2 SWAP1 POP SWAP2 SWAP1 POP JUMP JUMPDEST PUSH1 0x0 DUP2 SWAP1 POP SWAP2 SWAP1 POP JUMP JUMPDEST PUSH1 0x0 PUSH3 0x3E7 PUSH3 0x3E1 PUSH3 0x3DB DUP5 PUSH3 0x3B2 JUMP JUMPDEST PUSH3 0x3BC JUMP JUMPDEST PUSH3 0x3B2 JUMP JUMPDEST SWAP1 POP SWAP2 SWAP1 POP JUMP JUMPDEST PUSH1 0x0 DUP2 SWAP1 POP SWAP2 SWAP1 POP JUMP JUMPDEST PUSH3 0x403 DUP4 PUSH3 0x3C6 JUMP JUMPDEST PUSH3 0x41B PUSH3 0x412 DUP3 PUSH3 0x3EE JUMP JUMPDEST DUP5 DUP5 SLOAD PUSH3 0x35C JUMP JUMPDEST DUP3 SSTORE POP POP POP POP JUMP JUMPDEST PUSH1 0x0 SWAP1 JUMP JUMPDEST PUSH3 0x432 PUSH3 0x423 JUMP JUMPDEST PUSH3 0x43F DUP2 DUP5 DUP5 PUSH3 0x3F8 JUMP JUMPDEST POP POP POP JUMP JUMPDEST JUMPDEST DUP2 DUP2 LT ISZERO PUSH3 0x467 JUMPI PUSH3 0x45B PUSH1 0x0 DUP3 PUSH3 0x428 JUMP JUMPDEST PUSH1 0x1 DUP2 ADD SWAP1 POP PUSH3 0x445 JUMP JUMPDEST POP POP JUMP JUMPDEST PUSH1 0x1F DUP3 GT ISZERO PUSH3 0x4B6 JUMPI PUSH3 0x480 DUP2 PUSH3 0x32A JUMP JUMPDEST PUSH3 0x48B DUP5 PUSH3 0x33F JUMP JUMPDEST DUP2 ADD PUSH1 0x20 DUP6 LT ISZERO PUSH3 0x49B JUMPI DUP2 SWAP1 POP JUMPDEST PUSH3 0x4B3 PUSH3 0x4AA DUP6 PUSH3 0x33F JUMP JUMPDEST DUP4 ADD DUP3 PUSH3 0x444 JUMP JUMPDEST POP POP JUMPDEST POP POP POP JUMP JUMPDEST PUSH1 0x0 DUP3 DUP3 SHR SWAP1 POP SWAP3 SWAP2 POP POP JUMP JUMPDEST PUSH1 0x0 PUSH3 0x4DB PUSH1 0x0 NOT DUP5 PUSH1 0x8 MUL PUSH3 0x4BB JUMP JUMPDEST NOT DUP1 DUP4 AND SWAP2 POP POP SWAP3 SWAP2 POP POP JUMP JUMPDEST PUSH1 0x0 PUSH3 0x4F6 DUP4 DUP4 PUSH3 0x4C8 JUMP JUMPDEST SWAP2 POP DUP3 PUSH1 0x2 MUL DUP3 OR SWAP1 POP SWAP3 SWAP2 POP POP JUMP JUMPDEST PUSH3 0x511 DUP3 PUSH3 0x2BB JUMP JUMPDEST PUSH8 0xFFFFFFFFFFFFFFFF DUP2 GT ISZERO PUSH3 0x52D JUMPI PUSH3 0x52C PUSH3 0xB4 JUMP JUMPDEST JUMPDEST PUSH3 0x539 DUP3 SLOAD PUSH3 0x2F5 JUMP JUMPDEST PUSH3 0x546 DUP3 DUP3 DUP6 PUSH3 0x46B JUMP JUMPDEST PUSH1 0x0 PUSH1 0x20 SWAP1 POP PUSH1 0x1F DUP4 GT PUSH1 0x1 DUP2 EQ PUSH3 0x57E JUMPI PUSH1 0x0 DUP5 ISZERO PUSH3 0x569 JUMPI DUP3 DUP8 ADD MLOAD SWAP1 POP JUMPDEST PUSH3 0x575 DUP6 DUP3 PUSH3 0x4E8 JUMP JUMPDEST DUP7 SSTORE POP PUSH3 0x5E5 JUMP JUMPDEST PUSH1 0x1F NOT DUP5 AND PUSH3 0x58E DUP7 PUSH3 0x32A JUMP JUMPDEST PUSH1 0x0 JUMPDEST DUP3 DUP2 LT ISZERO PUSH3 0x5B8 JUMPI DUP5 DUP10 ADD MLOAD DUP3 SSTORE PUSH1 0x1 DUP3 ADD SWAP2 POP PUSH1 0x20 DUP6 ADD SWAP5 POP PUSH1 0x20 DUP2 ADD SWAP1 POP PUSH3 0x591 JUMP JUMPDEST DUP7 DUP4 LT ISZERO PUSH3 0x5D8 JUMPI DUP5 DUP10 ADD MLOAD PUSH3 0x5D4 PUSH1 0x1F DUP10 AND DUP3 PUSH3 0x4C8 JUMP JUMPDEST DUP4 SSTORE POP JUMPDEST PUSH1 0x1 PUSH1 0x2 DUP9 MUL ADD DUP9 SSTORE POP POP POP JUMPDEST POP POP POP POP POP POP JUMP JUMPDEST PUSH2 0x2EE DUP1 PUSH3 0x5FD PUSH1 0x0 CODECOPY PUSH1 0x0 RETURN INVALID PUSH1 0x80 PUSH1 0x40 MSTORE PUSH1 0x4 CALLDATASIZE LT PUSH2 0x38 JUMPI PUSH1 0x0 CALLDATALOAD PUSH1 0xE0 SHR DUP1 PUSH4 0xEEE4F7E EQ PUSH2 0x41 JUMPI DUP1 PUSH4 0x4E2285F1 EQ PUSH2 0x4B JUMPI DUP1 PUSH4 0x6A67555B EQ PUSH2 0x76 JUMPI PUSH2 0x3F JUMP JUMPDEST CALLDATASIZE PUSH2 0x3F JUMPI STOP JUMPDEST STOP JUMPDEST PUSH2 0x49 PUSH2 0xA1 JUMP JUMPDEST STOP JUMPDEST CALLVALUE DUP1 ISZERO PUSH2 0x57 JUMPI PUSH1 0x0 DUP1 REVERT JUMPDEST POP PUSH2 0x60 PUSH2 0xCD JUMP JUMPDEST PUSH1 0x40 MLOAD PUSH2 0x6D SWAP2 SWAP1 PUSH2 0x200 JUMP JUMPDEST PUSH1 0x40 MLOAD DUP1 SWAP2 SUB SWAP1 RETURN JUMPDEST CALLVALUE DUP1 ISZERO PUSH2 0x82 JUMPI PUSH1 0x0 DUP1 REVERT JUMPDEST POP PUSH2 0x8B PUSH2 0x15F JUMP JUMPDEST PUSH1 0x40 MLOAD PUSH2 0x98 SWAP2 SWAP1 PUSH2 0x23D JUMP JUMPDEST PUSH1 0x40 MLOAD DUP1 SWAP2 SUB SWAP1 RETURN JUMPDEST PUSH1 0x1 PUSH1 0x0 SWAP1 SLOAD SWAP1 PUSH2 0x100 EXP SWAP1 DIV PUSH1 0xFF AND ISZERO PUSH1 0x1 PUSH1 0x0 PUSH2 0x100 EXP DUP2 SLOAD DUP2 PUSH1 0xFF MUL NOT AND SWAP1 DUP4 ISZERO ISZERO MUL OR SWAP1 SSTORE POP JUMP JUMPDEST PUSH1 0x60 PUSH1 0x0 DUP1 SLOAD PUSH2 0xDC SWAP1 PUSH2 0x287 JUMP JUMPDEST DUP1 PUSH1 0x1F ADD PUSH1 0x20 DUP1 SWAP2 DIV MUL PUSH1 0x20 ADD PUSH1 0x40 MLOAD SWAP1 DUP2 ADD PUSH1 0x40 MSTORE DUP1 SWAP3 SWAP2 SWAP1 DUP2 DUP2 MSTORE PUSH1 0x20 ADD DUP3 DUP1 SLOAD PUSH2 0x108 SWAP1 PUSH2 0x287 JUMP JUMPDEST DUP1 ISZERO PUSH2 0x155 JUMPI DUP1 PUSH1 0x1F LT PUSH2 0x12A JUMPI PUSH2 0x100 DUP1 DUP4 SLOAD DIV MUL DUP4 MSTORE SWAP2 PUSH1 0x20 ADD SWAP2 PUSH2 0x155 JUMP JUMPDEST DUP3 ADD SWAP2 SWAP1 PUSH1 0x0 MSTORE PUSH1 0x20 PUSH1 0x0 KECCAK256 SWAP1 JUMPDEST DUP2 SLOAD DUP2 MSTORE SWAP1 PUSH1 0x1 ADD SWAP1 PUSH1 0x20 ADD DUP1 DUP4 GT PUSH2 0x138 JUMPI DUP3 SWAP1 SUB PUSH1 0x1F AND DUP3 ADD SWAP2 JUMPDEST POP POP POP POP POP SWAP1 POP SWAP1 JUMP JUMPDEST PUSH1 0x1 DUP1 SLOAD SWAP1 PUSH2 0x100 EXP SWAP1 DIV PUSH1 0xFF AND DUP2 JUMP JUMPDEST PUSH1 0x0 DUP2 MLOAD SWAP1 POP SWAP2 SWAP1 POP JUMP JUMPDEST PUSH1 0x0 DUP3 DUP3 MSTORE PUSH1 0x20 DUP3 ADD SWAP1 POP SWAP3 SWAP2 POP POP JUMP JUMPDEST PUSH1 0x0 JUMPDEST DUP4 DUP2 LT ISZERO PUSH2 0x1AA JUMPI DUP1 DUP3 ADD MLOAD DUP2 DUP5 ADD MSTORE PUSH1 0x20 DUP2 ADD SWAP1 POP PUSH2 0x18F JUMP JUMPDEST PUSH1 0x0 DUP5 DUP5 ADD MSTORE POP POP POP POP JUMP JUMPDEST PUSH1 0x0 PUSH1 0x1F NOT PUSH1 0x1F DUP4 ADD AND SWAP1 POP SWAP2 SWAP1 POP JUMP JUMPDEST PUSH1 0x0 PUSH2 0x1D2 DUP3 PUSH2 0x170 JUMP JUMPDEST PUSH2 0x1DC DUP2 DUP6 PUSH2 0x17B JUMP JUMPDEST SWAP4 POP PUSH2 0x1EC DUP2 DUP6 PUSH1 0x20 DUP7 ADD PUSH2 0x18C JUMP JUMPDEST PUSH2 0x1F5 DUP2 PUSH2 0x1B6 JUMP JUMPDEST DUP5 ADD SWAP2 POP POP SWAP3 SWAP2 POP POP JUMP JUMPDEST PUSH1 0x0 PUSH1 0x20 DUP3 ADD SWAP1 POP DUP2 DUP2 SUB PUSH1 0x0 DUP4 ADD MSTORE PUSH2 0x21A DUP2 DUP5 PUSH2 0x1C7 JUMP JUMPDEST SWAP1 POP SWAP3 SWAP2 POP POP JUMP JUMPDEST PUSH1 0x0 DUP2 ISZERO ISZERO SWAP1 POP SWAP2 SWAP1 POP JUMP JUMPDEST PUSH2 0x237 DUP2 PUSH2 0x222 JUMP JUMPDEST DUP3 MSTORE POP POP JUMP JUMPDEST PUSH1 0x0 PUSH1 0x20 DUP3 ADD SWAP1 POP PUSH2 0x252 PUSH1 0x0 DUP4 ADD DUP5 PUSH2 0x22E JUMP JUMPDEST SWAP3 SWAP2 POP POP JUMP JUMPDEST PUSH32 0x4E487B7100000000000000000000000000000000000000000000000000000000 PUSH1 0x0 MSTORE PUSH1 0x22 PUSH1 0x4 MSTORE PUSH1 0x24 PUSH1 0x0 REVERT JUMPDEST PUSH1 0x0 PUSH1 0x2 DUP3 DIV SWAP1 POP PUSH1 0x1 DUP3 AND DUP1 PUSH2 0x29F JUMPI PUSH1 0x7F DUP3 AND SWAP2 POP JUMPDEST PUSH1 0x20 DUP3 LT DUP2 SUB PUSH2 0x2B2 JUMPI PUSH2 0x2B1 PUSH2 0x258 JUMP JUMPDEST JUMPDEST POP SWAP2 SWAP1 POP JUMP INVALID LOG2 PUSH5 0x6970667358 0x22 SLT KECCAK256 EQ POP 0xCD INVALID 0xE2 REVERT PUSH1 0x9F MUL DUP16 LT DUP13 LOG1 0xD5 GASLIMIT 0x2B 0xE PUSH14 0x9AB9C283E18790B0A520FF628E7B PUSH5 0x736F6C6343 STOP ADDMOD SLT STOP CALLER LOG2 PUSH5 0x6970667358 0x22 SLT KECCAK256 SUB 0xDA PUSH8 0x68CE4BCEDE128C53 0xE1 0xE1 PUSH20 0x89906F49C8B7758A7EDB2A68147532C31056473 PUSH16 0x6C634300081200330000000000000000 "},"methodIdentifiers":{"createIdw3(string,bool)":"7ed1236b","deployedIdw3s(uint256)":"75dbf2e5","evaluateIfUserHasIdw3()":"5ce84147","idw3Owners(address)":"66aaa4b7","idw3s(address)":"ae6c25fa"}}}}}