{
  "_format": "hh-sol-artifact-1",
  "contractName": "Idw3Bridge",
  "sourceName": "contracts/Idw3Bridge.sol",
  "abi": [
    {
      "inputs": [
        {
          "internalType": "address",
          "name": "_to",
          "type": "address"
        }
      ],
      "name": "executeSwap",
      "outputs": [],
      "stateMutability": "payable",
      "type": "function"
    }
  ],
  "bytecode": "0x608060405234801561001057600080fd5b5060f68061001f6000396000f3fe608060405260043610601c5760003560e01c8063261bb466146021575b600080fd5b60376004803603810190603391906098565b6039565b005b50565b600080fd5b600073ffffffffffffffffffffffffffffffffffffffff82169050919050565b6000606a826041565b9050919050565b6078816061565b8114608257600080fd5b50565b6000813590506092816071565b92915050565b60006020828403121560ab5760aa603c565b5b600060b7848285016085565b9150509291505056fea26469706673582212208fee45397f473a483d8ba7bfaaf3f22be6112bac1de5327f8431eec76b4d29fe64736f6c63430008120033",
  "linkReferences": {},
  "deployedLinkReferences": {}
}