{
  "_format": "hh-sol-artifact-1",
  "contractName": "Idw3Bridge",
  "sourceName": "contracts/Idw3Bridge.sol",
  "abi": [
    {
      "inputs": [
        {
          "internalType": "address",
          "name": "_to",
          "type": "address"
        }
      ],
      "name": "executeSwap",
      "outputs": [],
      "stateMutability": "payable",
      "type": "function"
    },
    {
      "inputs": [
        {
          "internalType": "address",
          "name": "_to",
          "type": "address"
        }
      ],
      "name": "makePayment",
      "outputs": [],
      "stateMutability": "payable",
      "type": "function"
    }
  ],
  "bytecode": "0x608060405234801561001057600080fd5b5061011b806100206000396000f3fe60806040526004361060265760003560e01c8063261bb46614602b578063300be4fc146043575b600080fd5b60416004803603810190603d919060bd565b605b565b005b605960048036038101906055919060bd565b605e565b005b50565b50565b600080fd5b600073ffffffffffffffffffffffffffffffffffffffff82169050919050565b6000608f826066565b9050919050565b609d816086565b811460a757600080fd5b50565b60008135905060b7816096565b92915050565b60006020828403121560d05760cf6061565b5b600060dc8482850160aa565b9150509291505056fea2646970667358221220607dbbcc9a88739e6f38dfa405a25b894ee8c277615f5e83744701b468cdc3a164736f6c63430008120033",
  "linkReferences": {},
  "deployedLinkReferences": {}
}