{
  "_format": "hh-sol-artifact-1",
  "contractName": "Idw3",
  "sourceName": "contracts/Idw3.sol",
  "abi": [
    {
      "inputs": [
        {
          "internalType": "string",
          "name": "_vaultId",
          "type": "string"
        },
        {
          "internalType": "string",
          "name": "_typeOfId",
          "type": "string"
        }
      ],
      "stateMutability": "nonpayable",
      "type": "constructor"
    },
    {
      "stateMutability": "payable",
      "type": "fallback"
    },
    {
      "inputs": [
        {
          "internalType": "uint256[]",
          "name": "_superSet",
          "type": "uint256[]"
        }
      ],
      "name": "addSuperSet",
      "outputs": [],
      "stateMutability": "nonpayable",
      "type": "function"
    },
    {
      "inputs": [],
      "name": "getVaultId",
      "outputs": [
        {
          "internalType": "string",
          "name": "",
          "type": "string"
        }
      ],
      "stateMutability": "view",
      "type": "function"
    },
    {
      "inputs": [],
      "name": "modifyPseudoSwitch",
      "outputs": [],
      "stateMutability": "nonpayable",
      "type": "function"
    },
    {
      "inputs": [
        {
          "internalType": "uint256",
          "name": "",
          "type": "uint256"
        }
      ],
      "name": "superSet",
      "outputs": [
        {
          "internalType": "uint256",
          "name": "",
          "type": "uint256"
        }
      ],
      "stateMutability": "view",
      "type": "function"
    },
    {
      "stateMutability": "payable",
      "type": "receive"
    }
  ],
  "bytecode": "0x60806040523480156200001157600080fd5b5060405162000bac38038062000bac833981810160405281019062000037919062000211565b8160009081620000489190620004e1565b5080600290816200005a9190620004e1565b506000600160006101000a81548160ff0219169083151502179055505050620005c8565b6000604051905090565b600080fd5b600080fd5b600080fd5b600080fd5b6000601f19601f8301169050919050565b7f4e487b7100000000000000000000000000000000000000000000000000000000600052604160045260246000fd5b620000e7826200009c565b810181811067ffffffffffffffff82111715620001095762000108620000ad565b5b80604052505050565b60006200011e6200007e565b90506200012c8282620000dc565b919050565b600067ffffffffffffffff8211156200014f576200014e620000ad565b5b6200015a826200009c565b9050602081019050919050565b60005b83811015620001875780820151818401526020810190506200016a565b60008484015250505050565b6000620001aa620001a48462000131565b62000112565b905082815260208101848484011115620001c957620001c862000097565b5b620001d684828562000167565b509392505050565b600082601f830112620001f657620001f562000092565b5b81516200020884826020860162000193565b91505092915050565b600080604083850312156200022b576200022a62000088565b5b600083015167ffffffffffffffff8111156200024c576200024b6200008d565b5b6200025a85828601620001de565b925050602083015167ffffffffffffffff8111156200027e576200027d6200008d565b5b6200028c85828601620001de565b9150509250929050565b600081519050919050565b7f4e487b7100000000000000000000000000000000000000000000000000000000600052602260045260246000fd5b60006002820490506001821680620002e957607f821691505b602082108103620002ff57620002fe620002a1565b5b50919050565b60008190508160005260206000209050919050565b60006020601f8301049050919050565b600082821b905092915050565b600060088302620003697fffffffffffffffffffffffffffffffffffffffffffffffffffffffffffffffff826200032a565b6200037586836200032a565b95508019841693508086168417925050509392505050565b6000819050919050565b6000819050919050565b6000620003c2620003bc620003b6846200038d565b62000397565b6200038d565b9050919050565b6000819050919050565b620003de83620003a1565b620003f6620003ed82620003c9565b84845462000337565b825550505050565b600090565b6200040d620003fe565b6200041a818484620003d3565b505050565b5b8181101562000442576200043660008262000403565b60018101905062000420565b5050565b601f82111562000491576200045b8162000305565b62000466846200031a565b8101602085101562000476578190505b6200048e62000485856200031a565b8301826200041f565b50505b505050565b600082821c905092915050565b6000620004b66000198460080262000496565b1980831691505092915050565b6000620004d18383620004a3565b9150826002028217905092915050565b620004ec8262000296565b67ffffffffffffffff811115620005085762000507620000ad565b5b620005148254620002d0565b6200052182828562000446565b600060209050601f83116001811462000559576000841562000544578287015190505b620005508582620004c3565b865550620005c0565b601f198416620005698662000305565b60005b8281101562000593578489015182556001820191506020850194506020810190506200056c565b86831015620005b35784890151620005af601f891682620004a3565b8355505b6001600288020188555050505b505050505050565b6105d480620005d86000396000f3fe6080604052600436106100435760003560e01c80630eee4f7e1461004c5780634e2285f1146100635780637a539fac1461008e5780639f39f003146100b75761004a565b3661004a57005b005b34801561005857600080fd5b506100616100f4565b005b34801561006f57600080fd5b50610078610120565b60405161008591906102ea565b60405180910390f35b34801561009a57600080fd5b506100b560048036038101906100b0919061049e565b6101b2565b005b3480156100c357600080fd5b506100de60048036038101906100d991906104e7565b6101cc565b6040516100eb9190610523565b60405180910390f35b600160009054906101000a900460ff1615600160006101000a81548160ff021916908315150217905550565b60606000805461012f9061056d565b80601f016020809104026020016040519081016040528092919081815260200182805461015b9061056d565b80156101a85780601f1061017d576101008083540402835291602001916101a8565b820191906000526020600020905b81548152906001019060200180831161018b57829003601f168201915b5050505050905090565b80600390805190602001906101c89291906101f0565b5050565b600381815481106101dc57600080fd5b906000526020600020016000915090505481565b82805482825590600052602060002090810192821561022c579160200282015b8281111561022b578251825591602001919060010190610210565b5b509050610239919061023d565b5090565b5b8082111561025657600081600090555060010161023e565b5090565b600081519050919050565b600082825260208201905092915050565b60005b83811015610294578082015181840152602081019050610279565b60008484015250505050565b6000601f19601f8301169050919050565b60006102bc8261025a565b6102c68185610265565b93506102d6818560208601610276565b6102df816102a0565b840191505092915050565b6000602082019050818103600083015261030481846102b1565b905092915050565b6000604051905090565b600080fd5b600080fd5b600080fd5b7f4e487b7100000000000000000000000000000000000000000000000000000000600052604160045260246000fd5b61035d826102a0565b810181811067ffffffffffffffff8211171561037c5761037b610325565b5b80604052505050565b600061038f61030c565b905061039b8282610354565b919050565b600067ffffffffffffffff8211156103bb576103ba610325565b5b602082029050602081019050919050565b600080fd5b6000819050919050565b6103e4816103d1565b81146103ef57600080fd5b50565b600081359050610401816103db565b92915050565b600061041a610415846103a0565b610385565b9050808382526020820190506020840283018581111561043d5761043c6103cc565b5b835b81811015610466578061045288826103f2565b84526020840193505060208101905061043f565b5050509392505050565b600082601f83011261048557610484610320565b5b8135610495848260208601610407565b91505092915050565b6000602082840312156104b4576104b3610316565b5b600082013567ffffffffffffffff8111156104d2576104d161031b565b5b6104de84828501610470565b91505092915050565b6000602082840312156104fd576104fc610316565b5b600061050b848285016103f2565b91505092915050565b61051d816103d1565b82525050565b60006020820190506105386000830184610514565b92915050565b7f4e487b7100000000000000000000000000000000000000000000000000000000600052602260045260246000fd5b6000600282049050600182168061058557607f821691505b6020821081036105985761059761053e565b5b5091905056fea26469706673582212201ca5f483e06f559243898fd14478987d66858362324862addc26c11696f1655164736f6c63430008120033",
  "linkReferences": {},
  "deployedLinkReferences": {}
}