{
  "_format": "hh-sol-artifact-1",
  "contractName": "Idw3",
  "sourceName": "contracts/Idw3.sol",
  "abi": [
    {
      "inputs": [
        {
          "internalType": "uint256",
          "name": "_vaultId",
          "type": "uint256"
        },
        {
          "internalType": "bool",
          "name": "_typeOfId",
          "type": "bool"
        }
      ],
      "stateMutability": "nonpayable",
      "type": "constructor"
    },
    {
      "stateMutability": "payable",
      "type": "fallback"
    },
    {
      "inputs": [
        {
          "internalType": "uint256[]",
          "name": "_superSet",
          "type": "uint256[]"
        }
      ],
      "name": "addSuperSet",
      "outputs": [],
      "stateMutability": "nonpayable",
      "type": "function"
    },
    {
      "inputs": [],
      "name": "modifyPseudoSwitch",
      "outputs": [],
      "stateMutability": "nonpayable",
      "type": "function"
    },
    {
      "inputs": [
        {
          "internalType": "uint256",
          "name": "",
          "type": "uint256"
        }
      ],
      "name": "superSet",
      "outputs": [
        {
          "internalType": "uint256",
          "name": "",
          "type": "uint256"
        }
      ],
      "stateMutability": "view",
      "type": "function"
    },
    {
      "inputs": [],
      "name": "vaultId",
      "outputs": [
        {
          "internalType": "uint256",
          "name": "",
          "type": "uint256"
        }
      ],
      "stateMutability": "view",
      "type": "function"
    },
    {
      "stateMutability": "payable",
      "type": "receive"
    }
  ],
  "bytecode": "0x608060405234801561001057600080fd5b5060405161057d38038061057d833981810160405281019061003291906100e7565b81600081905550806001806101000a81548160ff0219169083151502179055506000600160006101000a81548160ff0219169083151502179055505050610127565b600080fd5b6000819050919050565b61008c81610079565b811461009757600080fd5b50565b6000815190506100a981610083565b92915050565b60008115159050919050565b6100c4816100af565b81146100cf57600080fd5b50565b6000815190506100e1816100bb565b92915050565b600080604083850312156100fe576100fd610074565b5b600061010c8582860161009a565b925050602061011d858286016100d2565b9150509250929050565b610447806101366000396000f3fe6080604052600436106100435760003560e01c80630eee4f7e1461004c57806333194c0a146100635780637a539fac1461008e5780639f39f003146100b75761004a565b3661004a57005b005b34801561005857600080fd5b506100616100f4565b005b34801561006f57600080fd5b50610078610120565b60405161008591906101e7565b60405180910390f35b34801561009a57600080fd5b506100b560048036038101906100b0919061039b565b610126565b005b3480156100c357600080fd5b506100de60048036038101906100d991906103e4565b610140565b6040516100eb91906101e7565b60405180910390f35b600160009054906101000a900460ff1615600160006101000a81548160ff021916908315150217905550565b60005481565b806002908051906020019061013c929190610164565b5050565b6002818154811061015057600080fd5b906000526020600020016000915090505481565b8280548282559060005260206000209081019282156101a0579160200282015b8281111561019f578251825591602001919060010190610184565b5b5090506101ad91906101b1565b5090565b5b808211156101ca5760008160009055506001016101b2565b5090565b6000819050919050565b6101e1816101ce565b82525050565b60006020820190506101fc60008301846101d8565b92915050565b6000604051905090565b600080fd5b600080fd5b600080fd5b6000601f19601f8301169050919050565b7f4e487b7100000000000000000000000000000000000000000000000000000000600052604160045260246000fd5b6102648261021b565b810181811067ffffffffffffffff821117156102835761028261022c565b5b80604052505050565b6000610296610202565b90506102a2828261025b565b919050565b600067ffffffffffffffff8211156102c2576102c161022c565b5b602082029050602081019050919050565b600080fd5b6102e1816101ce565b81146102ec57600080fd5b50565b6000813590506102fe816102d8565b92915050565b6000610317610312846102a7565b61028c565b9050808382526020820190506020840283018581111561033a576103396102d3565b5b835b81811015610363578061034f88826102ef565b84526020840193505060208101905061033c565b5050509392505050565b600082601f83011261038257610381610216565b5b8135610392848260208601610304565b91505092915050565b6000602082840312156103b1576103b061020c565b5b600082013567ffffffffffffffff8111156103cf576103ce610211565b5b6103db8482850161036d565b91505092915050565b6000602082840312156103fa576103f961020c565b5b6000610408848285016102ef565b9150509291505056fea26469706673582212203e59fa8674d8230839035f330417637e90c0ac6bf29a185879f69cf5b9c4bc4564736f6c63430008120033",
  "linkReferences": {},
  "deployedLinkReferences": {}
}