{
  "_format": "hh-sol-artifact-1",
  "contractName": "Idw3",
  "sourceName": "contracts/Idw3.sol",
  "abi": [
    {
      "inputs": [
        {
          "internalType": "string",
          "name": "_vaultId",
          "type": "string"
        },
        {
          "internalType": "bool",
          "name": "_isSentient",
          "type": "bool"
        }
      ],
      "stateMutability": "nonpayable",
      "type": "constructor"
    },
    {
      "stateMutability": "payable",
      "type": "fallback"
    },
    {
      "inputs": [],
      "name": "getVaultId",
      "outputs": [
        {
          "internalType": "string",
          "name": "",
          "type": "string"
        }
      ],
      "stateMutability": "view",
      "type": "function"
    },
    {
      "inputs": [],
      "name": "isSentient",
      "outputs": [
        {
          "internalType": "bool",
          "name": "",
          "type": "bool"
        }
      ],
      "stateMutability": "view",
      "type": "function"
    },
    {
      "inputs": [],
      "name": "modifyPseudoSwitch",
      "outputs": [],
      "stateMutability": "payable",
      "type": "function"
    },
    {
      "stateMutability": "payable",
      "type": "receive"
    }
  ],
  "bytecode": "0x60806040523480156200001157600080fd5b50604051620008eb380380620008eb833981810160405281019062000037919062000255565b816000908162000048919062000506565b50806001806101000a81548160ff0219169083151502179055506000600160006101000a81548160ff0219169083151502179055505050620005ed565b6000604051905090565b600080fd5b600080fd5b600080fd5b600080fd5b6000601f19601f8301169050919050565b7f4e487b7100000000000000000000000000000000000000000000000000000000600052604160045260246000fd5b620000ee82620000a3565b810181811067ffffffffffffffff8211171562000110576200010f620000b4565b5b80604052505050565b60006200012562000085565b9050620001338282620000e3565b919050565b600067ffffffffffffffff821115620001565762000155620000b4565b5b6200016182620000a3565b9050602081019050919050565b60005b838110156200018e57808201518184015260208101905062000171565b60008484015250505050565b6000620001b1620001ab8462000138565b62000119565b905082815260208101848484011115620001d057620001cf6200009e565b5b620001dd8482856200016e565b509392505050565b600082601f830112620001fd57620001fc62000099565b5b81516200020f8482602086016200019a565b91505092915050565b60008115159050919050565b6200022f8162000218565b81146200023b57600080fd5b50565b6000815190506200024f8162000224565b92915050565b600080604083850312156200026f576200026e6200008f565b5b600083015167ffffffffffffffff81111562000290576200028f62000094565b5b6200029e85828601620001e5565b9250506020620002b1858286016200023e565b9150509250929050565b600081519050919050565b7f4e487b7100000000000000000000000000000000000000000000000000000000600052602260045260246000fd5b600060028204905060018216806200030e57607f821691505b602082108103620003245762000323620002c6565b5b50919050565b60008190508160005260206000209050919050565b60006020601f8301049050919050565b600082821b905092915050565b6000600883026200038e7fffffffffffffffffffffffffffffffffffffffffffffffffffffffffffffffff826200034f565b6200039a86836200034f565b95508019841693508086168417925050509392505050565b6000819050919050565b6000819050919050565b6000620003e7620003e1620003db84620003b2565b620003bc565b620003b2565b9050919050565b6000819050919050565b6200040383620003c6565b6200041b6200041282620003ee565b8484546200035c565b825550505050565b600090565b6200043262000423565b6200043f818484620003f8565b505050565b5b8181101562000467576200045b60008262000428565b60018101905062000445565b5050565b601f821115620004b65762000480816200032a565b6200048b846200033f565b810160208510156200049b578190505b620004b3620004aa856200033f565b83018262000444565b50505b505050565b600082821c905092915050565b6000620004db60001984600802620004bb565b1980831691505092915050565b6000620004f68383620004c8565b9150826002028217905092915050565b6200051182620002bb565b67ffffffffffffffff8111156200052d576200052c620000b4565b5b620005398254620002f5565b620005468282856200046b565b600060209050601f8311600181146200057e576000841562000569578287015190505b620005758582620004e8565b865550620005e5565b601f1984166200058e866200032a565b60005b82811015620005b85784890151825560018201915060208501945060208101905062000591565b86831015620005d85784890151620005d4601f891682620004c8565b8355505b6001600288020188555050505b505050505050565b6102ee80620005fd6000396000f3fe6080604052600436106100385760003560e01c80630eee4f7e146100415780634e2285f11461004b5780636a67555b146100765761003f565b3661003f57005b005b6100496100a1565b005b34801561005757600080fd5b506100606100cd565b60405161006d9190610200565b60405180910390f35b34801561008257600080fd5b5061008b61015f565b604051610098919061023d565b60405180910390f35b600160009054906101000a900460ff1615600160006101000a81548160ff021916908315150217905550565b6060600080546100dc90610287565b80601f016020809104026020016040519081016040528092919081815260200182805461010890610287565b80156101555780601f1061012a57610100808354040283529160200191610155565b820191906000526020600020905b81548152906001019060200180831161013857829003601f168201915b5050505050905090565b60018054906101000a900460ff1681565b600081519050919050565b600082825260208201905092915050565b60005b838110156101aa57808201518184015260208101905061018f565b60008484015250505050565b6000601f19601f8301169050919050565b60006101d282610170565b6101dc818561017b565b93506101ec81856020860161018c565b6101f5816101b6565b840191505092915050565b6000602082019050818103600083015261021a81846101c7565b905092915050565b60008115159050919050565b61023781610222565b82525050565b6000602082019050610252600083018461022e565b92915050565b7f4e487b7100000000000000000000000000000000000000000000000000000000600052602260045260246000fd5b6000600282049050600182168061029f57607f821691505b6020821081036102b2576102b1610258565b5b5091905056fea26469706673582212201450cdfee2fd609f028f108ca1d5452b0e6d9ab9c283e18790b0a520ff628e7b64736f6c63430008120033",
  "linkReferences": {},
  "deployedLinkReferences": {}
}